{
	"test.sol": {
		"HelloWorld": {
			"abi": [
				{
					"inputs": [
						{
							"internalType": "string",
							"name": "helloWorldStr",
							"type": "string"
						}
					],
					"name": "addInfo",
					"outputs": [
						{
							"internalType": "string",
							"name": "",
							"type": "string"
						}
					],
					"stateMutability": "pure",
					"type": "function"
				},
				{
					"inputs": [],
					"name": "sayHello",
					"outputs": [
						{
							"internalType": "string",
							"name": "",
							"type": "string"
						}
					],
					"stateMutability": "view",
					"type": "function"
				},
				{
					"inputs": [
						{
							"internalType": "string",
							"name": "newStr",
							"type": "string"
						}
					],
					"name": "setHelloWorld",
					"outputs": [],
					"stateMutability": "nonpayable",
					"type": "function"
				},
				{
					"inputs": [
						{
							"internalType": "string",
							"name": "newStr",
							"type": "string"
						},
						{
							"internalType": "uint256",
							"name": "_id",
							"type": "uint256"
						}
					],
					"name": "setInfo",
					"outputs": [],
					"stateMutability": "nonpayable",
					"type": "function"
				}
			],
			"devdoc": {
				"kind": "dev",
				"methods": {},
				"version": 1
			},
			"evm": {
				"assembly": "    /* \"test.sol\":58:1557  contract HelloWorld {... */\n  mstore(0x40, 0x80)\n    /* \"test.sol\":98:102  true */\n  0x01\n    /* \"test.sol\":84:102  bool isTrue = true */\n  0x00\n  dup1\n  0x0100\n  exp\n  dup2\n  sload\n  dup2\n  0xff\n  mul\n  not\n  and\n  swap1\n  dup4\n  iszero\n  iszero\n  mul\n  or\n  swap1\n  sstore\n  pop\n    /* \"test.sol\":123:128  false */\n  0x00\n    /* \"test.sol\":108:128  bool isFalse = false */\n  dup1\n  exp(0x0100, 0x01)\n  dup2\n  sload\n  dup2\n  0xff\n  mul\n  not\n  and\n  swap1\n  dup4\n  iszero\n  iszero\n  mul\n  or\n  swap1\n  sstore\n  pop\n    /* \"test.sol\":196:205  255555556 */\n  0x0f3b77e4\n    /* \"test.sol\":181:205  uint256 num8 = 255555556 */\n  0x01\n  sstore\n    /* \"test.sol\":230:232  -1 */\n  0xffffffffffffffffffffffffffffffffffffffffffffffffffffffffffffffff\n    /* \"test.sol\":212:232  int256 negative = -1 */\n  0x02\n  sstore\n    /* \"test.sol\":271:303  bytes32 byteStr = \"Hello World!\" */\n  sstore(0x03, 0x48656c6c6f20576f726c64210000000000000000000000000000000000000000)\n    /* \"test.sol\":390:416  string str = \"Hello World\" */\n  mload(0x40)\n  dup1\n  0x40\n  add\n  0x40\n  mstore\n  dup1\n  0x0b\n  dup2\n  mstore\n  0x20\n  add\n  0x48656c6c6f20576f726c64000000000000000000000000000000000000000000\n  dup2\n  mstore\n  pop\n  0x04\n  swap1\n  dup2\n  tag_1\n  swap2\n  swap1\n  tag_2\n  jump\t// in\ntag_1:\n  pop\n    /* \"test.sol\":453:495  0x5B38Da6a701c568545dCfcB03FcB875f56beddC4 */\n  0x5b38da6a701c568545dcfcb03fcb875f56beddc4\n    /* \"test.sol\":438:495  address addr = 0x5B38Da6a701c568545dCfcB03FcB875f56beddC4 */\n  0x05\n  exp(0x0100, 0x00)\n  dup2\n  sload\n  dup2\n  0xffffffffffffffffffffffffffffffffffffffff\n  mul\n  not\n  and\n  swap1\n  dup4\n  0xffffffffffffffffffffffffffffffffffffffff\n  and\n  mul\n  or\n  swap1\n  sstore\n  pop\n    /* \"test.sol\":58:1557  contract HelloWorld {... */\n  callvalue\n  dup1\n  iszero\n  tag_3\n  jumpi\n  0x00\n  dup1\n  revert\ntag_3:\n  pop\n  jump(tag_4)\n    /* \"#utility.yul\":7:106   */\ntag_5:\n    /* \"#utility.yul\":59:65   */\n  0x00\n    /* \"#utility.yul\":93:98   */\n  dup2\n    /* \"#utility.yul\":87:99   */\n  mload\n    /* \"#utility.yul\":77:99   */\n  swap1\n  pop\n    /* \"#utility.yul\":7:106   */\n  swap2\n  swap1\n  pop\n  jump\t// out\n    /* \"#utility.yul\":112:292   */\ntag_6:\n    /* \"#utility.yul\":160:237   */\n  0x4e487b7100000000000000000000000000000000000000000000000000000000\n    /* \"#utility.yul\":157:158   */\n  0x00\n    /* \"#utility.yul\":150:238   */\n  mstore\n    /* \"#utility.yul\":257:261   */\n  0x41\n    /* \"#utility.yul\":254:255   */\n  0x04\n    /* \"#utility.yul\":247:262   */\n  mstore\n    /* \"#utility.yul\":281:285   */\n  0x24\n    /* \"#utility.yul\":278:279   */\n  0x00\n    /* \"#utility.yul\":271:286   */\n  revert\n    /* \"#utility.yul\":298:478   */\ntag_7:\n    /* \"#utility.yul\":346:423   */\n  0x4e487b7100000000000000000000000000000000000000000000000000000000\n    /* \"#utility.yul\":343:344   */\n  0x00\n    /* \"#utility.yul\":336:424   */\n  mstore\n    /* \"#utility.yul\":443:447   */\n  0x22\n    /* \"#utility.yul\":440:441   */\n  0x04\n    /* \"#utility.yul\":433:448   */\n  mstore\n    /* \"#utility.yul\":467:471   */\n  0x24\n    /* \"#utility.yul\":464:465   */\n  0x00\n    /* \"#utility.yul\":457:472   */\n  revert\n    /* \"#utility.yul\":484:804   */\ntag_8:\n    /* \"#utility.yul\":528:534   */\n  0x00\n    /* \"#utility.yul\":565:566   */\n  0x02\n    /* \"#utility.yul\":559:563   */\n  dup3\n    /* \"#utility.yul\":555:567   */\n  div\n    /* \"#utility.yul\":545:567   */\n  swap1\n  pop\n    /* \"#utility.yul\":612:613   */\n  0x01\n    /* \"#utility.yul\":606:610   */\n  dup3\n    /* \"#utility.yul\":602:614   */\n  and\n    /* \"#utility.yul\":633:651   */\n  dup1\n    /* \"#utility.yul\":623:704   */\n  tag_30\n  jumpi\n    /* \"#utility.yul\":689:693   */\n  0x7f\n    /* \"#utility.yul\":681:687   */\n  dup3\n    /* \"#utility.yul\":677:694   */\n  and\n    /* \"#utility.yul\":667:694   */\n  swap2\n  pop\n    /* \"#utility.yul\":623:704   */\ntag_30:\n    /* \"#utility.yul\":751:753   */\n  0x20\n    /* \"#utility.yul\":743:749   */\n  dup3\n    /* \"#utility.yul\":740:754   */\n  lt\n    /* \"#utility.yul\":720:738   */\n  dup2\n    /* \"#utility.yul\":717:755   */\n  sub\n    /* \"#utility.yul\":714:798   */\n  tag_31\n  jumpi\n    /* \"#utility.yul\":770:788   */\n  tag_32\n  tag_7\n  jump\t// in\ntag_32:\n    /* \"#utility.yul\":714:798   */\ntag_31:\n    /* \"#utility.yul\":535:804   */\n  pop\n    /* \"#utility.yul\":484:804   */\n  swap2\n  swap1\n  pop\n  jump\t// out\n    /* \"#utility.yul\":810:951   */\ntag_9:\n    /* \"#utility.yul\":859:863   */\n  0x00\n    /* \"#utility.yul\":882:885   */\n  dup2\n    /* \"#utility.yul\":874:885   */\n  swap1\n  pop\n    /* \"#utility.yul\":905:908   */\n  dup2\n    /* \"#utility.yul\":902:903   */\n  0x00\n    /* \"#utility.yul\":895:909   */\n  mstore\n    /* \"#utility.yul\":939:943   */\n  0x20\n    /* \"#utility.yul\":936:937   */\n  0x00\n    /* \"#utility.yul\":926:944   */\n  keccak256\n    /* \"#utility.yul\":918:944   */\n  swap1\n  pop\n    /* \"#utility.yul\":810:951   */\n  swap2\n  swap1\n  pop\n  jump\t// out\n    /* \"#utility.yul\":957:1050   */\ntag_10:\n    /* \"#utility.yul\":994:1000   */\n  0x00\n    /* \"#utility.yul\":1041:1043   */\n  0x20\n    /* \"#utility.yul\":1036:1038   */\n  0x1f\n    /* \"#utility.yul\":1029:1034   */\n  dup4\n    /* \"#utility.yul\":1025:1039   */\n  add\n    /* \"#utility.yul\":1021:1044   */\n  div\n    /* \"#utility.yul\":1011:1044   */\n  swap1\n  pop\n    /* \"#utility.yul\":957:1050   */\n  swap2\n  swap1\n  pop\n  jump\t// out\n    /* \"#utility.yul\":1056:1163   */\ntag_11:\n    /* \"#utility.yul\":1100:1108   */\n  0x00\n    /* \"#utility.yul\":1150:1155   */\n  dup3\n    /* \"#utility.yul\":1144:1148   */\n  dup3\n    /* \"#utility.yul\":1140:1156   */\n  shl\n    /* \"#utility.yul\":1119:1156   */\n  swap1\n  pop\n    /* \"#utility.yul\":1056:1163   */\n  swap3\n  swap2\n  pop\n  pop\n  jump\t// out\n    /* \"#utility.yul\":1169:1562   */\ntag_12:\n    /* \"#utility.yul\":1238:1244   */\n  0x00\n    /* \"#utility.yul\":1288:1289   */\n  0x08\n    /* \"#utility.yul\":1276:1286   */\n  dup4\n    /* \"#utility.yul\":1272:1290   */\n  mul\n    /* \"#utility.yul\":1311:1408   */\n  tag_37\n    /* \"#utility.yul\":1341:1407   */\n  0xffffffffffffffffffffffffffffffffffffffffffffffffffffffffffffffff\n    /* \"#utility.yul\":1330:1339   */\n  dup3\n    /* \"#utility.yul\":1311:1408   */\n  tag_11\n  jump\t// in\ntag_37:\n    /* \"#utility.yul\":1429:1468   */\n  tag_38\n    /* \"#utility.yul\":1459:1467   */\n  dup7\n    /* \"#utility.yul\":1448:1457   */\n  dup4\n    /* \"#utility.yul\":1429:1468   */\n  tag_11\n  jump\t// in\ntag_38:\n    /* \"#utility.yul\":1417:1468   */\n  swap6\n  pop\n    /* \"#utility.yul\":1501:1505   */\n  dup1\n    /* \"#utility.yul\":1497:1506   */\n  not\n    /* \"#utility.yul\":1490:1495   */\n  dup5\n    /* \"#utility.yul\":1486:1507   */\n  and\n    /* \"#utility.yul\":1477:1507   */\n  swap4\n  pop\n    /* \"#utility.yul\":1550:1554   */\n  dup1\n    /* \"#utility.yul\":1540:1548   */\n  dup7\n    /* \"#utility.yul\":1536:1555   */\n  and\n    /* \"#utility.yul\":1529:1534   */\n  dup5\n    /* \"#utility.yul\":1526:1556   */\n  or\n    /* \"#utility.yul\":1516:1556   */\n  swap3\n  pop\n    /* \"#utility.yul\":1245:1562   */\n  pop\n  pop\n    /* \"#utility.yul\":1169:1562   */\n  swap4\n  swap3\n  pop\n  pop\n  pop\n  jump\t// out\n    /* \"#utility.yul\":1568:1645   */\ntag_13:\n    /* \"#utility.yul\":1605:1612   */\n  0x00\n    /* \"#utility.yul\":1634:1639   */\n  dup2\n    /* \"#utility.yul\":1623:1639   */\n  swap1\n  pop\n    /* \"#utility.yul\":1568:1645   */\n  swap2\n  swap1\n  pop\n  jump\t// out\n    /* \"#utility.yul\":1651:1711   */\ntag_14:\n    /* \"#utility.yul\":1679:1682   */\n  0x00\n    /* \"#utility.yul\":1700:1705   */\n  dup2\n    /* \"#utility.yul\":1693:1705   */\n  swap1\n  pop\n    /* \"#utility.yul\":1651:1711   */\n  swap2\n  swap1\n  pop\n  jump\t// out\n    /* \"#utility.yul\":1717:1859   */\ntag_15:\n    /* \"#utility.yul\":1767:1776   */\n  0x00\n    /* \"#utility.yul\":1800:1853   */\n  tag_42\n    /* \"#utility.yul\":1818:1852   */\n  tag_43\n    /* \"#utility.yul\":1827:1851   */\n  tag_44\n    /* \"#utility.yul\":1845:1850   */\n  dup5\n    /* \"#utility.yul\":1827:1851   */\n  tag_13\n  jump\t// in\ntag_44:\n    /* \"#utility.yul\":1818:1852   */\n  tag_14\n  jump\t// in\ntag_43:\n    /* \"#utility.yul\":1800:1853   */\n  tag_13\n  jump\t// in\ntag_42:\n    /* \"#utility.yul\":1787:1853   */\n  swap1\n  pop\n    /* \"#utility.yul\":1717:1859   */\n  swap2\n  swap1\n  pop\n  jump\t// out\n    /* \"#utility.yul\":1865:1940   */\ntag_16:\n    /* \"#utility.yul\":1908:1911   */\n  0x00\n    /* \"#utility.yul\":1929:1934   */\n  dup2\n    /* \"#utility.yul\":1922:1934   */\n  swap1\n  pop\n    /* \"#utility.yul\":1865:1940   */\n  swap2\n  swap1\n  pop\n  jump\t// out\n    /* \"#utility.yul\":1946:2215   */\ntag_17:\n    /* \"#utility.yul\":2056:2095   */\n  tag_47\n    /* \"#utility.yul\":2087:2094   */\n  dup4\n    /* \"#utility.yul\":2056:2095   */\n  tag_15\n  jump\t// in\ntag_47:\n    /* \"#utility.yul\":2117:2208   */\n  tag_48\n    /* \"#utility.yul\":2166:2207   */\n  tag_49\n    /* \"#utility.yul\":2190:2206   */\n  dup3\n    /* \"#utility.yul\":2166:2207   */\n  tag_16\n  jump\t// in\ntag_49:\n    /* \"#utility.yul\":2158:2164   */\n  dup5\n    /* \"#utility.yul\":2151:2155   */\n  dup5\n    /* \"#utility.yul\":2145:2156   */\n  sload\n    /* \"#utility.yul\":2117:2208   */\n  tag_12\n  jump\t// in\ntag_48:\n    /* \"#utility.yul\":2111:2115   */\n  dup3\n    /* \"#utility.yul\":2104:2209   */\n  sstore\n    /* \"#utility.yul\":2022:2215   */\n  pop\n    /* \"#utility.yul\":1946:2215   */\n  pop\n  pop\n  pop\n  jump\t// out\n    /* \"#utility.yul\":2221:2294   */\ntag_18:\n    /* \"#utility.yul\":2266:2269   */\n  0x00\n    /* \"#utility.yul\":2221:2294   */\n  swap1\n  jump\t// out\n    /* \"#utility.yul\":2300:2489   */\ntag_19:\n    /* \"#utility.yul\":2377:2409   */\n  tag_52\n  tag_18\n  jump\t// in\ntag_52:\n    /* \"#utility.yul\":2418:2483   */\n  tag_53\n    /* \"#utility.yul\":2476:2482   */\n  dup2\n    /* \"#utility.yul\":2468:2474   */\n  dup5\n    /* \"#utility.yul\":2462:2466   */\n  dup5\n    /* \"#utility.yul\":2418:2483   */\n  tag_17\n  jump\t// in\ntag_53:\n    /* \"#utility.yul\":2353:2489   */\n  pop\n    /* \"#utility.yul\":2300:2489   */\n  pop\n  pop\n  jump\t// out\n    /* \"#utility.yul\":2495:2681   */\ntag_20:\n    /* \"#utility.yul\":2555:2675   */\ntag_55:\n    /* \"#utility.yul\":2572:2575   */\n  dup2\n    /* \"#utility.yul\":2565:2570   */\n  dup2\n    /* \"#utility.yul\":2562:2576   */\n  lt\n    /* \"#utility.yul\":2555:2675   */\n  iszero\n  tag_57\n  jumpi\n    /* \"#utility.yul\":2626:2665   */\n  tag_58\n    /* \"#utility.yul\":2663:2664   */\n  0x00\n    /* \"#utility.yul\":2656:2661   */\n  dup3\n    /* \"#utility.yul\":2626:2665   */\n  tag_19\n  jump\t// in\ntag_58:\n    /* \"#utility.yul\":2599:2600   */\n  0x01\n    /* \"#utility.yul\":2592:2597   */\n  dup2\n    /* \"#utility.yul\":2588:2601   */\n  add\n    /* \"#utility.yul\":2579:2601   */\n  swap1\n  pop\n    /* \"#utility.yul\":2555:2675   */\n  jump(tag_55)\ntag_57:\n    /* \"#utility.yul\":2495:2681   */\n  pop\n  pop\n  jump\t// out\n    /* \"#utility.yul\":2687:3230   */\ntag_21:\n    /* \"#utility.yul\":2788:2790   */\n  0x1f\n    /* \"#utility.yul\":2783:2786   */\n  dup3\n    /* \"#utility.yul\":2780:2791   */\n  gt\n    /* \"#utility.yul\":2777:3223   */\n  iszero\n  tag_60\n  jumpi\n    /* \"#utility.yul\":2822:2860   */\n  tag_61\n    /* \"#utility.yul\":2854:2859   */\n  dup2\n    /* \"#utility.yul\":2822:2860   */\n  tag_9\n  jump\t// in\ntag_61:\n    /* \"#utility.yul\":2906:2935   */\n  tag_62\n    /* \"#utility.yul\":2924:2934   */\n  dup5\n    /* \"#utility.yul\":2906:2935   */\n  tag_10\n  jump\t// in\ntag_62:\n    /* \"#utility.yul\":2896:2904   */\n  dup2\n    /* \"#utility.yul\":2892:2936   */\n  add\n    /* \"#utility.yul\":3089:3091   */\n  0x20\n    /* \"#utility.yul\":3077:3087   */\n  dup6\n    /* \"#utility.yul\":3074:3092   */\n  lt\n    /* \"#utility.yul\":3071:3120   */\n  iszero\n  tag_63\n  jumpi\n    /* \"#utility.yul\":3110:3118   */\n  dup2\n    /* \"#utility.yul\":3095:3118   */\n  swap1\n  pop\n    /* \"#utility.yul\":3071:3120   */\ntag_63:\n    /* \"#utility.yul\":3133:3213   */\n  tag_64\n    /* \"#utility.yul\":3189:3211   */\n  tag_65\n    /* \"#utility.yul\":3207:3210   */\n  dup6\n    /* \"#utility.yul\":3189:3211   */\n  tag_10\n  jump\t// in\ntag_65:\n    /* \"#utility.yul\":3179:3187   */\n  dup4\n    /* \"#utility.yul\":3175:3212   */\n  add\n    /* \"#utility.yul\":3162:3173   */\n  dup3\n    /* \"#utility.yul\":3133:3213   */\n  tag_20\n  jump\t// in\ntag_64:\n    /* \"#utility.yul\":2792:3223   */\n  pop\n  pop\n    /* \"#utility.yul\":2777:3223   */\ntag_60:\n    /* \"#utility.yul\":2687:3230   */\n  pop\n  pop\n  pop\n  jump\t// out\n    /* \"#utility.yul\":3236:3353   */\ntag_22:\n    /* \"#utility.yul\":3290:3298   */\n  0x00\n    /* \"#utility.yul\":3340:3345   */\n  dup3\n    /* \"#utility.yul\":3334:3338   */\n  dup3\n    /* \"#utility.yul\":3330:3346   */\n  shr\n    /* \"#utility.yul\":3309:3346   */\n  swap1\n  pop\n    /* \"#utility.yul\":3236:3353   */\n  swap3\n  swap2\n  pop\n  pop\n  jump\t// out\n    /* \"#utility.yul\":3359:3528   */\ntag_23:\n    /* \"#utility.yul\":3403:3409   */\n  0x00\n    /* \"#utility.yul\":3436:3487   */\n  tag_68\n    /* \"#utility.yul\":3484:3485   */\n  0x00\n    /* \"#utility.yul\":3480:3486   */\n  not\n    /* \"#utility.yul\":3472:3477   */\n  dup5\n    /* \"#utility.yul\":3469:3470   */\n  0x08\n    /* \"#utility.yul\":3465:3478   */\n  mul\n    /* \"#utility.yul\":3436:3487   */\n  tag_22\n  jump\t// in\ntag_68:\n    /* \"#utility.yul\":3432:3488   */\n  not\n    /* \"#utility.yul\":3517:3521   */\n  dup1\n    /* \"#utility.yul\":3511:3515   */\n  dup4\n    /* \"#utility.yul\":3507:3522   */\n  and\n    /* \"#utility.yul\":3497:3522   */\n  swap2\n  pop\n    /* \"#utility.yul\":3410:3528   */\n  pop\n    /* \"#utility.yul\":3359:3528   */\n  swap3\n  swap2\n  pop\n  pop\n  jump\t// out\n    /* \"#utility.yul\":3533:3828   */\ntag_24:\n    /* \"#utility.yul\":3609:3613   */\n  0x00\n    /* \"#utility.yul\":3755:3784   */\n  tag_70\n    /* \"#utility.yul\":3780:3783   */\n  dup4\n    /* \"#utility.yul\":3774:3778   */\n  dup4\n    /* \"#utility.yul\":3755:3784   */\n  tag_23\n  jump\t// in\ntag_70:\n    /* \"#utility.yul\":3747:3784   */\n  swap2\n  pop\n    /* \"#utility.yul\":3817:3820   */\n  dup3\n    /* \"#utility.yul\":3814:3815   */\n  0x02\n    /* \"#utility.yul\":3810:3821   */\n  mul\n    /* \"#utility.yul\":3804:3808   */\n  dup3\n    /* \"#utility.yul\":3801:3822   */\n  or\n    /* \"#utility.yul\":3793:3822   */\n  swap1\n  pop\n    /* \"#utility.yul\":3533:3828   */\n  swap3\n  swap2\n  pop\n  pop\n  jump\t// out\n    /* \"#utility.yul\":3833:5228   */\ntag_2:\n    /* \"#utility.yul\":3950:3987   */\n  tag_72\n    /* \"#utility.yul\":3983:3986   */\n  dup3\n    /* \"#utility.yul\":3950:3987   */\n  tag_5\n  jump\t// in\ntag_72:\n    /* \"#utility.yul\":4052:4070   */\n  0xffffffffffffffff\n    /* \"#utility.yul\":4044:4050   */\n  dup2\n    /* \"#utility.yul\":4041:4071   */\n  gt\n    /* \"#utility.yul\":4038:4094   */\n  iszero\n  tag_73\n  jumpi\n    /* \"#utility.yul\":4074:4092   */\n  tag_74\n  tag_6\n  jump\t// in\ntag_74:\n    /* \"#utility.yul\":4038:4094   */\ntag_73:\n    /* \"#utility.yul\":4118:4156   */\n  tag_75\n    /* \"#utility.yul\":4150:4154   */\n  dup3\n    /* \"#utility.yul\":4144:4155   */\n  sload\n    /* \"#utility.yul\":4118:4156   */\n  tag_8\n  jump\t// in\ntag_75:\n    /* \"#utility.yul\":4203:4270   */\n  tag_76\n    /* \"#utility.yul\":4263:4269   */\n  dup3\n    /* \"#utility.yul\":4255:4261   */\n  dup3\n    /* \"#utility.yul\":4249:4253   */\n  dup6\n    /* \"#utility.yul\":4203:4270   */\n  tag_21\n  jump\t// in\ntag_76:\n    /* \"#utility.yul\":4297:4298   */\n  0x00\n    /* \"#utility.yul\":4321:4325   */\n  0x20\n    /* \"#utility.yul\":4308:4325   */\n  swap1\n  pop\n    /* \"#utility.yul\":4353:4355   */\n  0x1f\n    /* \"#utility.yul\":4345:4351   */\n  dup4\n    /* \"#utility.yul\":4342:4356   */\n  gt\n    /* \"#utility.yul\":4370:4371   */\n  0x01\n    /* \"#utility.yul\":4365:4983   */\n  dup2\n  eq\n  tag_78\n  jumpi\n    /* \"#utility.yul\":5027:5028   */\n  0x00\n    /* \"#utility.yul\":5044:5050   */\n  dup5\n    /* \"#utility.yul\":5041:5118   */\n  iszero\n  tag_79\n  jumpi\n    /* \"#utility.yul\":5093:5102   */\n  dup3\n    /* \"#utility.yul\":5088:5091   */\n  dup8\n    /* \"#utility.yul\":5084:5103   */\n  add\n    /* \"#utility.yul\":5078:5104   */\n  mload\n    /* \"#utility.yul\":5069:5104   */\n  swap1\n  pop\n    /* \"#utility.yul\":5041:5118   */\ntag_79:\n    /* \"#utility.yul\":5144:5211   */\n  tag_80\n    /* \"#utility.yul\":5204:5210   */\n  dup6\n    /* \"#utility.yul\":5197:5202   */\n  dup3\n    /* \"#utility.yul\":5144:5211   */\n  tag_24\n  jump\t// in\ntag_80:\n    /* \"#utility.yul\":5138:5142   */\n  dup7\n    /* \"#utility.yul\":5131:5212   */\n  sstore\n    /* \"#utility.yul\":5000:5222   */\n  pop\n    /* \"#utility.yul\":4335:5222   */\n  jump(tag_77)\n    /* \"#utility.yul\":4365:4983   */\ntag_78:\n    /* \"#utility.yul\":4417:4421   */\n  0x1f\n    /* \"#utility.yul\":4413:4422   */\n  not\n    /* \"#utility.yul\":4405:4411   */\n  dup5\n    /* \"#utility.yul\":4401:4423   */\n  and\n    /* \"#utility.yul\":4451:4488   */\n  tag_81\n    /* \"#utility.yul\":4483:4487   */\n  dup7\n    /* \"#utility.yul\":4451:4488   */\n  tag_9\n  jump\t// in\ntag_81:\n    /* \"#utility.yul\":4510:4511   */\n  0x00\n    /* \"#utility.yul\":4524:4732   */\ntag_82:\n    /* \"#utility.yul\":4538:4545   */\n  dup3\n    /* \"#utility.yul\":4535:4536   */\n  dup2\n    /* \"#utility.yul\":4532:4546   */\n  lt\n    /* \"#utility.yul\":4524:4732   */\n  iszero\n  tag_84\n  jumpi\n    /* \"#utility.yul\":4617:4626   */\n  dup5\n    /* \"#utility.yul\":4612:4615   */\n  dup10\n    /* \"#utility.yul\":4608:4627   */\n  add\n    /* \"#utility.yul\":4602:4628   */\n  mload\n    /* \"#utility.yul\":4594:4600   */\n  dup3\n    /* \"#utility.yul\":4587:4629   */\n  sstore\n    /* \"#utility.yul\":4668:4669   */\n  0x01\n    /* \"#utility.yul\":4660:4666   */\n  dup3\n    /* \"#utility.yul\":4656:4670   */\n  add\n    /* \"#utility.yul\":4646:4670   */\n  swap2\n  pop\n    /* \"#utility.yul\":4715:4717   */\n  0x20\n    /* \"#utility.yul\":4704:4713   */\n  dup6\n    /* \"#utility.yul\":4700:4718   */\n  add\n    /* \"#utility.yul\":4687:4718   */\n  swap5\n  pop\n    /* \"#utility.yul\":4561:4565   */\n  0x20\n    /* \"#utility.yul\":4558:4559   */\n  dup2\n    /* \"#utility.yul\":4554:4566   */\n  add\n    /* \"#utility.yul\":4549:4566   */\n  swap1\n  pop\n    /* \"#utility.yul\":4524:4732   */\n  jump(tag_82)\ntag_84:\n    /* \"#utility.yul\":4760:4766   */\n  dup7\n    /* \"#utility.yul\":4751:4758   */\n  dup4\n    /* \"#utility.yul\":4748:4767   */\n  lt\n    /* \"#utility.yul\":4745:4924   */\n  iszero\n  tag_85\n  jumpi\n    /* \"#utility.yul\":4818:4827   */\n  dup5\n    /* \"#utility.yul\":4813:4816   */\n  dup10\n    /* \"#utility.yul\":4809:4828   */\n  add\n    /* \"#utility.yul\":4803:4829   */\n  mload\n    /* \"#utility.yul\":4861:4909   */\n  tag_86\n    /* \"#utility.yul\":4903:4907   */\n  0x1f\n    /* \"#utility.yul\":4895:4901   */\n  dup10\n    /* \"#utility.yul\":4891:4908   */\n  and\n    /* \"#utility.yul\":4880:4889   */\n  dup3\n    /* \"#utility.yul\":4861:4909   */\n  tag_23\n  jump\t// in\ntag_86:\n    /* \"#utility.yul\":4853:4859   */\n  dup4\n    /* \"#utility.yul\":4846:4910   */\n  sstore\n    /* \"#utility.yul\":4768:4924   */\n  pop\n    /* \"#utility.yul\":4745:4924   */\ntag_85:\n    /* \"#utility.yul\":4970:4971   */\n  0x01\n    /* \"#utility.yul\":4966:4967   */\n  0x02\n    /* \"#utility.yul\":4958:4964   */\n  dup9\n    /* \"#utility.yul\":4954:4968   */\n  mul\n    /* \"#utility.yul\":4950:4972   */\n  add\n    /* \"#utility.yul\":4944:4948   */\n  dup9\n    /* \"#utility.yul\":4937:4973   */\n  sstore\n    /* \"#utility.yul\":4372:4983   */\n  pop\n  pop\n  pop\n    /* \"#utility.yul\":4335:5222   */\ntag_77:\n  pop\n    /* \"#utility.yul\":3925:5228   */\n  pop\n  pop\n  pop\n    /* \"#utility.yul\":3833:5228   */\n  pop\n  pop\n  jump\t// out\n    /* \"test.sol\":58:1557  contract HelloWorld {... */\ntag_4:\n  dataSize(sub_0)\n  dup1\n  dataOffset(sub_0)\n  0x00\n  codecopy\n  0x00\n  return\nstop\n\nsub_0: assembly {\n        /* \"test.sol\":58:1557  contract HelloWorld {... */\n      mstore(0x40, 0x80)\n      callvalue\n      dup1\n      iszero\n      tag_1\n      jumpi\n      0x00\n      dup1\n      revert\n    tag_1:\n      pop\n      jumpi(tag_2, lt(calldatasize, 0x04))\n      shr(0xe0, calldataload(0x00))\n      dup1\n      0x0bf803e4\n      eq\n      tag_3\n      jumpi\n      dup1\n      0x8262963b\n      eq\n      tag_4\n      jumpi\n      dup1\n      0x90ffded8\n      eq\n      tag_5\n      jumpi\n      dup1\n      0xef5fb05b\n      eq\n      tag_6\n      jumpi\n    tag_2:\n      0x00\n      dup1\n      revert\n        /* \"test.sol\":757:917  function addInfo(string memory helloWorldStr) public  pure returns (string memory){... */\n    tag_3:\n      tag_7\n      0x04\n      dup1\n      calldatasize\n      sub\n      dup2\n      add\n      swap1\n      tag_8\n      swap2\n      swap1\n      tag_9\n      jump\t// in\n    tag_8:\n      tag_10\n      jump\t// in\n    tag_7:\n      mload(0x40)\n      tag_11\n      swap2\n      swap1\n      tag_12\n      jump\t// in\n    tag_11:\n      mload(0x40)\n      dup1\n      swap2\n      sub\n      swap1\n      return\n        /* \"test.sol\":1375:1549  function setInfo(string memory newStr, uint256 _id) external {... */\n    tag_4:\n      tag_13\n      0x04\n      dup1\n      calldatasize\n      sub\n      dup2\n      add\n      swap1\n      tag_14\n      swap2\n      swap1\n      tag_15\n      jump\t// in\n    tag_14:\n      tag_16\n      jump\t// in\n    tag_13:\n      stop\n        /* \"test.sol\":652:735  function setHelloWorld(string memory newStr) external {... */\n    tag_5:\n      tag_17\n      0x04\n      dup1\n      calldatasize\n      sub\n      dup2\n      add\n      swap1\n      tag_18\n      swap2\n      swap1\n      tag_9\n      jump\t// in\n    tag_18:\n      tag_19\n      jump\t// in\n    tag_17:\n      stop\n        /* \"test.sol\":552:646  function sayHello() external view returns (string memory) {... */\n    tag_6:\n      tag_20\n      tag_21\n      jump\t// in\n    tag_20:\n      mload(0x40)\n      tag_22\n      swap2\n      swap1\n      tag_12\n      jump\t// in\n    tag_22:\n      mload(0x40)\n      dup1\n      swap2\n      sub\n      swap1\n      return\n        /* \"test.sol\":757:917  function addInfo(string memory helloWorldStr) public  pure returns (string memory){... */\n    tag_10:\n        /* \"test.sol\":825:838  string memory */\n      0x60\n        /* \"test.sol\":870:883  helloWorldStr */\n      dup2\n        /* \"test.sol\":856:910  string.concat(helloWorldStr, \" form Frank's contract\") */\n      add(0x20, mload(0x40))\n      tag_24\n      swap2\n      swap1\n      tag_25\n      jump\t// in\n    tag_24:\n      mload(0x40)\n      0x20\n      dup2\n      dup4\n      sub\n      sub\n      dup2\n      mstore\n      swap1\n      0x40\n      mstore\n        /* \"test.sol\":849:910  return string.concat(helloWorldStr, \" form Frank's contract\") */\n      swap1\n      pop\n        /* \"test.sol\":757:917  function addInfo(string memory helloWorldStr) public  pure returns (string memory){... */\n      swap2\n      swap1\n      pop\n      jump\t// out\n        /* \"test.sol\":1375:1549  function setInfo(string memory newStr, uint256 _id) external {... */\n    tag_16:\n        /* \"test.sol\":1452:1458  newStr */\n      dup2\n        /* \"test.sol\":1446:1449  str */\n      0x04\n        /* \"test.sol\":1446:1458  str = newStr */\n      swap1\n      dup2\n      tag_27\n      swap2\n      swap1\n      tag_28\n      jump\t// in\n    tag_27:\n      pop\n        /* \"test.sol\":1468:1484  Info memory info */\n      0x00\n        /* \"test.sol\":1487:1516  Info(newStr, _id, msg.sender) */\n      mload(0x40)\n      dup1\n      0x60\n      add\n      0x40\n      mstore\n      dup1\n        /* \"test.sol\":1492:1498  newStr */\n      dup5\n        /* \"test.sol\":1487:1516  Info(newStr, _id, msg.sender) */\n      dup2\n      mstore\n      0x20\n      add\n        /* \"test.sol\":1500:1503  _id */\n      dup4\n        /* \"test.sol\":1487:1516  Info(newStr, _id, msg.sender) */\n      dup2\n      mstore\n      0x20\n      add\n        /* \"test.sol\":1505:1515  msg.sender */\n      caller\n        /* \"test.sol\":1487:1516  Info(newStr, _id, msg.sender) */\n      0xffffffffffffffffffffffffffffffffffffffff\n      and\n      dup2\n      mstore\n      pop\n        /* \"test.sol\":1468:1516  Info memory info = Info(newStr, _id, msg.sender) */\n      swap1\n      pop\n        /* \"test.sol\":1526:1531  infos */\n      0x06\n        /* \"test.sol\":1537:1541  info */\n      dup2\n        /* \"test.sol\":1526:1542  infos.push(info) */\n      swap1\n      dup1\n      0x01\n      dup2\n      sload\n      add\n      dup1\n      dup3\n      sstore\n      dup1\n      swap2\n      pop\n      pop\n      0x01\n      swap1\n      sub\n      swap1\n      0x00\n      mstore\n      keccak256(0x00, 0x20)\n      swap1\n      0x03\n      mul\n      add\n      0x00\n      swap1\n      swap2\n      swap1\n      swap2\n      swap1\n      swap2\n      pop\n      0x00\n      dup3\n      add\n      mload\n      dup2\n      0x00\n      add\n      swap1\n      dup2\n      tag_30\n      swap2\n      swap1\n      tag_28\n      jump\t// in\n    tag_30:\n      pop\n      0x20\n      dup3\n      add\n      mload\n      dup2\n      0x01\n      add\n      sstore\n      0x40\n      dup3\n      add\n      mload\n      dup2\n      0x02\n      add\n      exp(0x0100, 0x00)\n      dup2\n      sload\n      dup2\n      0xffffffffffffffffffffffffffffffffffffffff\n      mul\n      not\n      and\n      swap1\n      dup4\n      0xffffffffffffffffffffffffffffffffffffffff\n      and\n      mul\n      or\n      swap1\n      sstore\n      pop\n      pop\n      pop\n        /* \"test.sol\":1436:1549  {... */\n      pop\n        /* \"test.sol\":1375:1549  function setInfo(string memory newStr, uint256 _id) external {... */\n      pop\n      pop\n      jump\t// out\n        /* \"test.sol\":652:735  function setHelloWorld(string memory newStr) external {... */\n    tag_19:\n        /* \"test.sol\":722:728  newStr */\n      dup1\n        /* \"test.sol\":716:719  str */\n      0x04\n        /* \"test.sol\":716:728  str = newStr */\n      swap1\n      dup2\n      tag_32\n      swap2\n      swap1\n      tag_28\n      jump\t// in\n    tag_32:\n      pop\n        /* \"test.sol\":652:735  function setHelloWorld(string memory newStr) external {... */\n      pop\n      jump\t// out\n        /* \"test.sol\":552:646  function sayHello() external view returns (string memory) {... */\n    tag_21:\n        /* \"test.sol\":595:608  string memory */\n      0x60\n        /* \"test.sol\":627:639  addInfo(str) */\n      tag_34\n        /* \"test.sol\":635:638  str */\n      0x04\n        /* \"test.sol\":627:639  addInfo(str) */\n      dup1\n      sload\n      tag_35\n      swap1\n      tag_36\n      jump\t// in\n    tag_35:\n      dup1\n      0x1f\n      add\n      0x20\n      dup1\n      swap2\n      div\n      mul\n      0x20\n      add\n      mload(0x40)\n      swap1\n      dup2\n      add\n      0x40\n      mstore\n      dup1\n      swap3\n      swap2\n      swap1\n      dup2\n      dup2\n      mstore\n      0x20\n      add\n      dup3\n      dup1\n      sload\n      tag_37\n      swap1\n      tag_36\n      jump\t// in\n    tag_37:\n      dup1\n      iszero\n      tag_38\n      jumpi\n      dup1\n      0x1f\n      lt\n      tag_39\n      jumpi\n      0x0100\n      dup1\n      dup4\n      sload\n      div\n      mul\n      dup4\n      mstore\n      swap2\n      0x20\n      add\n      swap2\n      jump(tag_38)\n    tag_39:\n      dup3\n      add\n      swap2\n      swap1\n      0x00\n      mstore\n      keccak256(0x00, 0x20)\n      swap1\n    tag_40:\n      dup2\n      sload\n      dup2\n      mstore\n      swap1\n      0x01\n      add\n      swap1\n      0x20\n      add\n      dup1\n      dup4\n      gt\n      tag_40\n      jumpi\n      dup3\n      swap1\n      sub\n      0x1f\n      and\n      dup3\n      add\n      swap2\n    tag_38:\n      pop\n      pop\n      pop\n      pop\n      pop\n        /* \"test.sol\":627:634  addInfo */\n      tag_10\n        /* \"test.sol\":627:639  addInfo(str) */\n      jump\t// in\n    tag_34:\n        /* \"test.sol\":620:639  return addInfo(str) */\n      swap1\n      pop\n        /* \"test.sol\":552:646  function sayHello() external view returns (string memory) {... */\n      swap1\n      jump\t// out\n        /* \"#utility.yul\":7:82   */\n    tag_41:\n        /* \"#utility.yul\":40:46   */\n      0x00\n        /* \"#utility.yul\":73:75   */\n      0x40\n        /* \"#utility.yul\":67:76   */\n      mload\n        /* \"#utility.yul\":57:76   */\n      swap1\n      pop\n        /* \"#utility.yul\":7:82   */\n      swap1\n      jump\t// out\n        /* \"#utility.yul\":88:205   */\n    tag_42:\n        /* \"#utility.yul\":197:198   */\n      0x00\n        /* \"#utility.yul\":194:195   */\n      dup1\n        /* \"#utility.yul\":187:199   */\n      revert\n        /* \"#utility.yul\":211:328   */\n    tag_43:\n        /* \"#utility.yul\":320:321   */\n      0x00\n        /* \"#utility.yul\":317:318   */\n      dup1\n        /* \"#utility.yul\":310:322   */\n      revert\n        /* \"#utility.yul\":334:451   */\n    tag_44:\n        /* \"#utility.yul\":443:444   */\n      0x00\n        /* \"#utility.yul\":440:441   */\n      dup1\n        /* \"#utility.yul\":433:445   */\n      revert\n        /* \"#utility.yul\":457:574   */\n    tag_45:\n        /* \"#utility.yul\":566:567   */\n      0x00\n        /* \"#utility.yul\":563:564   */\n      dup1\n        /* \"#utility.yul\":556:568   */\n      revert\n        /* \"#utility.yul\":580:682   */\n    tag_46:\n        /* \"#utility.yul\":621:627   */\n      0x00\n        /* \"#utility.yul\":672:674   */\n      0x1f\n        /* \"#utility.yul\":668:675   */\n      not\n        /* \"#utility.yul\":663:665   */\n      0x1f\n        /* \"#utility.yul\":656:661   */\n      dup4\n        /* \"#utility.yul\":652:666   */\n      add\n        /* \"#utility.yul\":648:676   */\n      and\n        /* \"#utility.yul\":638:676   */\n      swap1\n      pop\n        /* \"#utility.yul\":580:682   */\n      swap2\n      swap1\n      pop\n      jump\t// out\n        /* \"#utility.yul\":688:868   */\n    tag_47:\n        /* \"#utility.yul\":736:813   */\n      0x4e487b7100000000000000000000000000000000000000000000000000000000\n        /* \"#utility.yul\":733:734   */\n      0x00\n        /* \"#utility.yul\":726:814   */\n      mstore\n        /* \"#utility.yul\":833:837   */\n      0x41\n        /* \"#utility.yul\":830:831   */\n      0x04\n        /* \"#utility.yul\":823:838   */\n      mstore\n        /* \"#utility.yul\":857:861   */\n      0x24\n        /* \"#utility.yul\":854:855   */\n      0x00\n        /* \"#utility.yul\":847:862   */\n      revert\n        /* \"#utility.yul\":874:1155   */\n    tag_48:\n        /* \"#utility.yul\":957:984   */\n      tag_89\n        /* \"#utility.yul\":979:983   */\n      dup3\n        /* \"#utility.yul\":957:984   */\n      tag_46\n      jump\t// in\n    tag_89:\n        /* \"#utility.yul\":949:955   */\n      dup2\n        /* \"#utility.yul\":945:985   */\n      add\n        /* \"#utility.yul\":1087:1093   */\n      dup2\n        /* \"#utility.yul\":1075:1085   */\n      dup2\n        /* \"#utility.yul\":1072:1094   */\n      lt\n        /* \"#utility.yul\":1051:1069   */\n      0xffffffffffffffff\n        /* \"#utility.yul\":1039:1049   */\n      dup3\n        /* \"#utility.yul\":1036:1070   */\n      gt\n        /* \"#utility.yul\":1033:1095   */\n      or\n        /* \"#utility.yul\":1030:1118   */\n      iszero\n      tag_90\n      jumpi\n        /* \"#utility.yul\":1098:1116   */\n      tag_91\n      tag_47\n      jump\t// in\n    tag_91:\n        /* \"#utility.yul\":1030:1118   */\n    tag_90:\n        /* \"#utility.yul\":1138:1148   */\n      dup1\n        /* \"#utility.yul\":1134:1136   */\n      0x40\n        /* \"#utility.yul\":1127:1149   */\n      mstore\n        /* \"#utility.yul\":917:1155   */\n      pop\n        /* \"#utility.yul\":874:1155   */\n      pop\n      pop\n      jump\t// out\n        /* \"#utility.yul\":1161:1290   */\n    tag_49:\n        /* \"#utility.yul\":1195:1201   */\n      0x00\n        /* \"#utility.yul\":1222:1242   */\n      tag_93\n      tag_41\n      jump\t// in\n    tag_93:\n        /* \"#utility.yul\":1212:1242   */\n      swap1\n      pop\n        /* \"#utility.yul\":1251:1284   */\n      tag_94\n        /* \"#utility.yul\":1279:1283   */\n      dup3\n        /* \"#utility.yul\":1271:1277   */\n      dup3\n        /* \"#utility.yul\":1251:1284   */\n      tag_48\n      jump\t// in\n    tag_94:\n        /* \"#utility.yul\":1161:1290   */\n      swap2\n      swap1\n      pop\n      jump\t// out\n        /* \"#utility.yul\":1296:1604   */\n    tag_50:\n        /* \"#utility.yul\":1358:1362   */\n      0x00\n        /* \"#utility.yul\":1448:1466   */\n      0xffffffffffffffff\n        /* \"#utility.yul\":1440:1446   */\n      dup3\n        /* \"#utility.yul\":1437:1467   */\n      gt\n        /* \"#utility.yul\":1434:1490   */\n      iszero\n      tag_96\n      jumpi\n        /* \"#utility.yul\":1470:1488   */\n      tag_97\n      tag_47\n      jump\t// in\n    tag_97:\n        /* \"#utility.yul\":1434:1490   */\n    tag_96:\n        /* \"#utility.yul\":1508:1537   */\n      tag_98\n        /* \"#utility.yul\":1530:1536   */\n      dup3\n        /* \"#utility.yul\":1508:1537   */\n      tag_46\n      jump\t// in\n    tag_98:\n        /* \"#utility.yul\":1500:1537   */\n      swap1\n      pop\n        /* \"#utility.yul\":1592:1596   */\n      0x20\n        /* \"#utility.yul\":1586:1590   */\n      dup2\n        /* \"#utility.yul\":1582:1597   */\n      add\n        /* \"#utility.yul\":1574:1597   */\n      swap1\n      pop\n        /* \"#utility.yul\":1296:1604   */\n      swap2\n      swap1\n      pop\n      jump\t// out\n        /* \"#utility.yul\":1610:1758   */\n    tag_51:\n        /* \"#utility.yul\":1708:1714   */\n      dup3\n        /* \"#utility.yul\":1703:1706   */\n      dup2\n        /* \"#utility.yul\":1698:1701   */\n      dup4\n        /* \"#utility.yul\":1685:1715   */\n      calldatacopy\n        /* \"#utility.yul\":1749:1750   */\n      0x00\n        /* \"#utility.yul\":1740:1746   */\n      dup4\n        /* \"#utility.yul\":1735:1738   */\n      dup4\n        /* \"#utility.yul\":1731:1747   */\n      add\n        /* \"#utility.yul\":1724:1751   */\n      mstore\n        /* \"#utility.yul\":1610:1758   */\n      pop\n      pop\n      pop\n      jump\t// out\n        /* \"#utility.yul\":1764:2189   */\n    tag_52:\n        /* \"#utility.yul\":1842:1847   */\n      0x00\n        /* \"#utility.yul\":1867:1933   */\n      tag_101\n        /* \"#utility.yul\":1883:1932   */\n      tag_102\n        /* \"#utility.yul\":1925:1931   */\n      dup5\n        /* \"#utility.yul\":1883:1932   */\n      tag_50\n      jump\t// in\n    tag_102:\n        /* \"#utility.yul\":1867:1933   */\n      tag_49\n      jump\t// in\n    tag_101:\n        /* \"#utility.yul\":1858:1933   */\n      swap1\n      pop\n        /* \"#utility.yul\":1956:1962   */\n      dup3\n        /* \"#utility.yul\":1949:1954   */\n      dup2\n        /* \"#utility.yul\":1942:1963   */\n      mstore\n        /* \"#utility.yul\":1994:1998   */\n      0x20\n        /* \"#utility.yul\":1987:1992   */\n      dup2\n        /* \"#utility.yul\":1983:1999   */\n      add\n        /* \"#utility.yul\":2032:2035   */\n      dup5\n        /* \"#utility.yul\":2023:2029   */\n      dup5\n        /* \"#utility.yul\":2018:2021   */\n      dup5\n        /* \"#utility.yul\":2014:2030   */\n      add\n        /* \"#utility.yul\":2011:2036   */\n      gt\n        /* \"#utility.yul\":2008:2120   */\n      iszero\n      tag_103\n      jumpi\n        /* \"#utility.yul\":2039:2118   */\n      tag_104\n      tag_45\n      jump\t// in\n    tag_104:\n        /* \"#utility.yul\":2008:2120   */\n    tag_103:\n        /* \"#utility.yul\":2129:2183   */\n      tag_105\n        /* \"#utility.yul\":2176:2182   */\n      dup5\n        /* \"#utility.yul\":2171:2174   */\n      dup3\n        /* \"#utility.yul\":2166:2169   */\n      dup6\n        /* \"#utility.yul\":2129:2183   */\n      tag_51\n      jump\t// in\n    tag_105:\n        /* \"#utility.yul\":1848:2189   */\n      pop\n        /* \"#utility.yul\":1764:2189   */\n      swap4\n      swap3\n      pop\n      pop\n      pop\n      jump\t// out\n        /* \"#utility.yul\":2209:2549   */\n    tag_53:\n        /* \"#utility.yul\":2265:2270   */\n      0x00\n        /* \"#utility.yul\":2314:2317   */\n      dup3\n        /* \"#utility.yul\":2307:2311   */\n      0x1f\n        /* \"#utility.yul\":2299:2305   */\n      dup4\n        /* \"#utility.yul\":2295:2312   */\n      add\n        /* \"#utility.yul\":2291:2318   */\n      slt\n        /* \"#utility.yul\":2281:2403   */\n      tag_107\n      jumpi\n        /* \"#utility.yul\":2322:2401   */\n      tag_108\n      tag_44\n      jump\t// in\n    tag_108:\n        /* \"#utility.yul\":2281:2403   */\n    tag_107:\n        /* \"#utility.yul\":2439:2445   */\n      dup2\n        /* \"#utility.yul\":2426:2446   */\n      calldataload\n        /* \"#utility.yul\":2464:2543   */\n      tag_109\n        /* \"#utility.yul\":2539:2542   */\n      dup5\n        /* \"#utility.yul\":2531:2537   */\n      dup3\n        /* \"#utility.yul\":2524:2528   */\n      0x20\n        /* \"#utility.yul\":2516:2522   */\n      dup7\n        /* \"#utility.yul\":2512:2529   */\n      add\n        /* \"#utility.yul\":2464:2543   */\n      tag_52\n      jump\t// in\n    tag_109:\n        /* \"#utility.yul\":2455:2543   */\n      swap2\n      pop\n        /* \"#utility.yul\":2271:2549   */\n      pop\n        /* \"#utility.yul\":2209:2549   */\n      swap3\n      swap2\n      pop\n      pop\n      jump\t// out\n        /* \"#utility.yul\":2555:3064   */\n    tag_9:\n        /* \"#utility.yul\":2624:2630   */\n      0x00\n        /* \"#utility.yul\":2673:2675   */\n      0x20\n        /* \"#utility.yul\":2661:2670   */\n      dup3\n        /* \"#utility.yul\":2652:2659   */\n      dup5\n        /* \"#utility.yul\":2648:2671   */\n      sub\n        /* \"#utility.yul\":2644:2676   */\n      slt\n        /* \"#utility.yul\":2641:2760   */\n      iszero\n      tag_111\n      jumpi\n        /* \"#utility.yul\":2679:2758   */\n      tag_112\n      tag_42\n      jump\t// in\n    tag_112:\n        /* \"#utility.yul\":2641:2760   */\n    tag_111:\n        /* \"#utility.yul\":2827:2828   */\n      0x00\n        /* \"#utility.yul\":2816:2825   */\n      dup3\n        /* \"#utility.yul\":2812:2829   */\n      add\n        /* \"#utility.yul\":2799:2830   */\n      calldataload\n        /* \"#utility.yul\":2857:2875   */\n      0xffffffffffffffff\n        /* \"#utility.yul\":2849:2855   */\n      dup2\n        /* \"#utility.yul\":2846:2876   */\n      gt\n        /* \"#utility.yul\":2843:2960   */\n      iszero\n      tag_113\n      jumpi\n        /* \"#utility.yul\":2879:2958   */\n      tag_114\n      tag_43\n      jump\t// in\n    tag_114:\n        /* \"#utility.yul\":2843:2960   */\n    tag_113:\n        /* \"#utility.yul\":2984:3047   */\n      tag_115\n        /* \"#utility.yul\":3039:3046   */\n      dup5\n        /* \"#utility.yul\":3030:3036   */\n      dup3\n        /* \"#utility.yul\":3019:3028   */\n      dup6\n        /* \"#utility.yul\":3015:3037   */\n      add\n        /* \"#utility.yul\":2984:3047   */\n      tag_53\n      jump\t// in\n    tag_115:\n        /* \"#utility.yul\":2974:3047   */\n      swap2\n      pop\n        /* \"#utility.yul\":2770:3057   */\n      pop\n        /* \"#utility.yul\":2555:3064   */\n      swap3\n      swap2\n      pop\n      pop\n      jump\t// out\n        /* \"#utility.yul\":3070:3169   */\n    tag_54:\n        /* \"#utility.yul\":3122:3128   */\n      0x00\n        /* \"#utility.yul\":3156:3161   */\n      dup2\n        /* \"#utility.yul\":3150:3162   */\n      mload\n        /* \"#utility.yul\":3140:3162   */\n      swap1\n      pop\n        /* \"#utility.yul\":3070:3169   */\n      swap2\n      swap1\n      pop\n      jump\t// out\n        /* \"#utility.yul\":3175:3344   */\n    tag_55:\n        /* \"#utility.yul\":3259:3270   */\n      0x00\n        /* \"#utility.yul\":3293:3299   */\n      dup3\n        /* \"#utility.yul\":3288:3291   */\n      dup3\n        /* \"#utility.yul\":3281:3300   */\n      mstore\n        /* \"#utility.yul\":3333:3337   */\n      0x20\n        /* \"#utility.yul\":3328:3331   */\n      dup3\n        /* \"#utility.yul\":3324:3338   */\n      add\n        /* \"#utility.yul\":3309:3338   */\n      swap1\n      pop\n        /* \"#utility.yul\":3175:3344   */\n      swap3\n      swap2\n      pop\n      pop\n      jump\t// out\n        /* \"#utility.yul\":3350:3489   */\n    tag_56:\n        /* \"#utility.yul\":3439:3445   */\n      dup3\n        /* \"#utility.yul\":3434:3437   */\n      dup2\n        /* \"#utility.yul\":3429:3432   */\n      dup4\n        /* \"#utility.yul\":3423:3446   */\n      mcopy\n        /* \"#utility.yul\":3480:3481   */\n      0x00\n        /* \"#utility.yul\":3471:3477   */\n      dup4\n        /* \"#utility.yul\":3466:3469   */\n      dup4\n        /* \"#utility.yul\":3462:3478   */\n      add\n        /* \"#utility.yul\":3455:3482   */\n      mstore\n        /* \"#utility.yul\":3350:3489   */\n      pop\n      pop\n      pop\n      jump\t// out\n        /* \"#utility.yul\":3495:3872   */\n    tag_57:\n        /* \"#utility.yul\":3583:3586   */\n      0x00\n        /* \"#utility.yul\":3611:3650   */\n      tag_120\n        /* \"#utility.yul\":3644:3649   */\n      dup3\n        /* \"#utility.yul\":3611:3650   */\n      tag_54\n      jump\t// in\n    tag_120:\n        /* \"#utility.yul\":3666:3737   */\n      tag_121\n        /* \"#utility.yul\":3730:3736   */\n      dup2\n        /* \"#utility.yul\":3725:3728   */\n      dup6\n        /* \"#utility.yul\":3666:3737   */\n      tag_55\n      jump\t// in\n    tag_121:\n        /* \"#utility.yul\":3659:3737   */\n      swap4\n      pop\n        /* \"#utility.yul\":3746:3811   */\n      tag_122\n        /* \"#utility.yul\":3804:3810   */\n      dup2\n        /* \"#utility.yul\":3799:3802   */\n      dup6\n        /* \"#utility.yul\":3792:3796   */\n      0x20\n        /* \"#utility.yul\":3785:3790   */\n      dup7\n        /* \"#utility.yul\":3781:3797   */\n      add\n        /* \"#utility.yul\":3746:3811   */\n      tag_56\n      jump\t// in\n    tag_122:\n        /* \"#utility.yul\":3836:3865   */\n      tag_123\n        /* \"#utility.yul\":3858:3864   */\n      dup2\n        /* \"#utility.yul\":3836:3865   */\n      tag_46\n      jump\t// in\n    tag_123:\n        /* \"#utility.yul\":3831:3834   */\n      dup5\n        /* \"#utility.yul\":3827:3866   */\n      add\n        /* \"#utility.yul\":3820:3866   */\n      swap2\n      pop\n        /* \"#utility.yul\":3587:3872   */\n      pop\n        /* \"#utility.yul\":3495:3872   */\n      swap3\n      swap2\n      pop\n      pop\n      jump\t// out\n        /* \"#utility.yul\":3878:4191   */\n    tag_12:\n        /* \"#utility.yul\":3991:3995   */\n      0x00\n        /* \"#utility.yul\":4029:4031   */\n      0x20\n        /* \"#utility.yul\":4018:4027   */\n      dup3\n        /* \"#utility.yul\":4014:4032   */\n      add\n        /* \"#utility.yul\":4006:4032   */\n      swap1\n      pop\n        /* \"#utility.yul\":4078:4087   */\n      dup2\n        /* \"#utility.yul\":4072:4076   */\n      dup2\n        /* \"#utility.yul\":4068:4088   */\n      sub\n        /* \"#utility.yul\":4064:4065   */\n      0x00\n        /* \"#utility.yul\":4053:4062   */\n      dup4\n        /* \"#utility.yul\":4049:4066   */\n      add\n        /* \"#utility.yul\":4042:4089   */\n      mstore\n        /* \"#utility.yul\":4106:4184   */\n      tag_125\n        /* \"#utility.yul\":4179:4183   */\n      dup2\n        /* \"#utility.yul\":4170:4176   */\n      dup5\n        /* \"#utility.yul\":4106:4184   */\n      tag_57\n      jump\t// in\n    tag_125:\n        /* \"#utility.yul\":4098:4184   */\n      swap1\n      pop\n        /* \"#utility.yul\":3878:4191   */\n      swap3\n      swap2\n      pop\n      pop\n      jump\t// out\n        /* \"#utility.yul\":4197:4274   */\n    tag_58:\n        /* \"#utility.yul\":4234:4241   */\n      0x00\n        /* \"#utility.yul\":4263:4268   */\n      dup2\n        /* \"#utility.yul\":4252:4268   */\n      swap1\n      pop\n        /* \"#utility.yul\":4197:4274   */\n      swap2\n      swap1\n      pop\n      jump\t// out\n        /* \"#utility.yul\":4280:4402   */\n    tag_59:\n        /* \"#utility.yul\":4353:4377   */\n      tag_128\n        /* \"#utility.yul\":4371:4376   */\n      dup2\n        /* \"#utility.yul\":4353:4377   */\n      tag_58\n      jump\t// in\n    tag_128:\n        /* \"#utility.yul\":4346:4351   */\n      dup2\n        /* \"#utility.yul\":4343:4378   */\n      eq\n        /* \"#utility.yul\":4333:4396   */\n      tag_129\n      jumpi\n        /* \"#utility.yul\":4392:4393   */\n      0x00\n        /* \"#utility.yul\":4389:4390   */\n      dup1\n        /* \"#utility.yul\":4382:4394   */\n      revert\n        /* \"#utility.yul\":4333:4396   */\n    tag_129:\n        /* \"#utility.yul\":4280:4402   */\n      pop\n      jump\t// out\n        /* \"#utility.yul\":4408:4547   */\n    tag_60:\n        /* \"#utility.yul\":4454:4459   */\n      0x00\n        /* \"#utility.yul\":4492:4498   */\n      dup2\n        /* \"#utility.yul\":4479:4499   */\n      calldataload\n        /* \"#utility.yul\":4470:4499   */\n      swap1\n      pop\n        /* \"#utility.yul\":4508:4541   */\n      tag_131\n        /* \"#utility.yul\":4535:4540   */\n      dup2\n        /* \"#utility.yul\":4508:4541   */\n      tag_59\n      jump\t// in\n    tag_131:\n        /* \"#utility.yul\":4408:4547   */\n      swap3\n      swap2\n      pop\n      pop\n      jump\t// out\n        /* \"#utility.yul\":4553:5207   */\n    tag_15:\n        /* \"#utility.yul\":4631:4637   */\n      0x00\n        /* \"#utility.yul\":4639:4645   */\n      dup1\n        /* \"#utility.yul\":4688:4690   */\n      0x40\n        /* \"#utility.yul\":4676:4685   */\n      dup4\n        /* \"#utility.yul\":4667:4674   */\n      dup6\n        /* \"#utility.yul\":4663:4686   */\n      sub\n        /* \"#utility.yul\":4659:4691   */\n      slt\n        /* \"#utility.yul\":4656:4775   */\n      iszero\n      tag_133\n      jumpi\n        /* \"#utility.yul\":4694:4773   */\n      tag_134\n      tag_42\n      jump\t// in\n    tag_134:\n        /* \"#utility.yul\":4656:4775   */\n    tag_133:\n        /* \"#utility.yul\":4842:4843   */\n      0x00\n        /* \"#utility.yul\":4831:4840   */\n      dup4\n        /* \"#utility.yul\":4827:4844   */\n      add\n        /* \"#utility.yul\":4814:4845   */\n      calldataload\n        /* \"#utility.yul\":4872:4890   */\n      0xffffffffffffffff\n        /* \"#utility.yul\":4864:4870   */\n      dup2\n        /* \"#utility.yul\":4861:4891   */\n      gt\n        /* \"#utility.yul\":4858:4975   */\n      iszero\n      tag_135\n      jumpi\n        /* \"#utility.yul\":4894:4973   */\n      tag_136\n      tag_43\n      jump\t// in\n    tag_136:\n        /* \"#utility.yul\":4858:4975   */\n    tag_135:\n        /* \"#utility.yul\":4999:5062   */\n      tag_137\n        /* \"#utility.yul\":5054:5061   */\n      dup6\n        /* \"#utility.yul\":5045:5051   */\n      dup3\n        /* \"#utility.yul\":5034:5043   */\n      dup7\n        /* \"#utility.yul\":5030:5052   */\n      add\n        /* \"#utility.yul\":4999:5062   */\n      tag_53\n      jump\t// in\n    tag_137:\n        /* \"#utility.yul\":4989:5062   */\n      swap3\n      pop\n        /* \"#utility.yul\":4785:5072   */\n      pop\n        /* \"#utility.yul\":5111:5113   */\n      0x20\n        /* \"#utility.yul\":5137:5190   */\n      tag_138\n        /* \"#utility.yul\":5182:5189   */\n      dup6\n        /* \"#utility.yul\":5173:5179   */\n      dup3\n        /* \"#utility.yul\":5162:5171   */\n      dup7\n        /* \"#utility.yul\":5158:5180   */\n      add\n        /* \"#utility.yul\":5137:5190   */\n      tag_60\n      jump\t// in\n    tag_138:\n        /* \"#utility.yul\":5127:5190   */\n      swap2\n      pop\n        /* \"#utility.yul\":5082:5200   */\n      pop\n        /* \"#utility.yul\":4553:5207   */\n      swap3\n      pop\n      swap3\n      swap1\n      pop\n      jump\t// out\n        /* \"#utility.yul\":5213:5361   */\n    tag_61:\n        /* \"#utility.yul\":5315:5326   */\n      0x00\n        /* \"#utility.yul\":5352:5355   */\n      dup2\n        /* \"#utility.yul\":5337:5355   */\n      swap1\n      pop\n        /* \"#utility.yul\":5213:5361   */\n      swap3\n      swap2\n      pop\n      pop\n      jump\t// out\n        /* \"#utility.yul\":5367:5757   */\n    tag_62:\n        /* \"#utility.yul\":5473:5476   */\n      0x00\n        /* \"#utility.yul\":5501:5540   */\n      tag_141\n        /* \"#utility.yul\":5534:5539   */\n      dup3\n        /* \"#utility.yul\":5501:5540   */\n      tag_54\n      jump\t// in\n    tag_141:\n        /* \"#utility.yul\":5556:5645   */\n      tag_142\n        /* \"#utility.yul\":5638:5644   */\n      dup2\n        /* \"#utility.yul\":5633:5636   */\n      dup6\n        /* \"#utility.yul\":5556:5645   */\n      tag_61\n      jump\t// in\n    tag_142:\n        /* \"#utility.yul\":5549:5645   */\n      swap4\n      pop\n        /* \"#utility.yul\":5654:5719   */\n      tag_143\n        /* \"#utility.yul\":5712:5718   */\n      dup2\n        /* \"#utility.yul\":5707:5710   */\n      dup6\n        /* \"#utility.yul\":5700:5704   */\n      0x20\n        /* \"#utility.yul\":5693:5698   */\n      dup7\n        /* \"#utility.yul\":5689:5705   */\n      add\n        /* \"#utility.yul\":5654:5719   */\n      tag_56\n      jump\t// in\n    tag_143:\n        /* \"#utility.yul\":5744:5750   */\n      dup1\n        /* \"#utility.yul\":5739:5742   */\n      dup5\n        /* \"#utility.yul\":5735:5751   */\n      add\n        /* \"#utility.yul\":5728:5751   */\n      swap2\n      pop\n        /* \"#utility.yul\":5477:5757   */\n      pop\n        /* \"#utility.yul\":5367:5757   */\n      swap3\n      swap2\n      pop\n      pop\n      jump\t// out\n        /* \"#utility.yul\":5763:5963   */\n    tag_63:\n        /* \"#utility.yul\":5932:5956   */\n      0x20666f726d204672616e6b277320636f6e747261637400000000000000000000\n        /* \"#utility.yul\":5927:5930   */\n      dup2\n        /* \"#utility.yul\":5920:5957   */\n      mstore\n        /* \"#utility.yul\":5763:5963   */\n      pop\n      jump\t// out\n        /* \"#utility.yul\":5969:6511   */\n    tag_25:\n        /* \"#utility.yul\":6192:6195   */\n      0x00\n        /* \"#utility.yul\":6214:6309   */\n      tag_146\n        /* \"#utility.yul\":6305:6308   */\n      dup3\n        /* \"#utility.yul\":6296:6302   */\n      dup5\n        /* \"#utility.yul\":6214:6309   */\n      tag_62\n      jump\t// in\n    tag_146:\n        /* \"#utility.yul\":6207:6309   */\n      swap2\n      pop\n        /* \"#utility.yul\":6319:6457   */\n      tag_147\n        /* \"#utility.yul\":6453:6456   */\n      dup3\n        /* \"#utility.yul\":6319:6457   */\n      tag_63\n      jump\t// in\n    tag_147:\n        /* \"#utility.yul\":6482:6484   */\n      0x16\n        /* \"#utility.yul\":6477:6480   */\n      dup3\n        /* \"#utility.yul\":6473:6485   */\n      add\n        /* \"#utility.yul\":6466:6485   */\n      swap2\n      pop\n        /* \"#utility.yul\":6502:6505   */\n      dup2\n        /* \"#utility.yul\":6495:6505   */\n      swap1\n      pop\n        /* \"#utility.yul\":5969:6511   */\n      swap3\n      swap2\n      pop\n      pop\n      jump\t// out\n        /* \"#utility.yul\":6517:6697   */\n    tag_64:\n        /* \"#utility.yul\":6565:6642   */\n      0x4e487b7100000000000000000000000000000000000000000000000000000000\n        /* \"#utility.yul\":6562:6563   */\n      0x00\n        /* \"#utility.yul\":6555:6643   */\n      mstore\n        /* \"#utility.yul\":6662:6666   */\n      0x22\n        /* \"#utility.yul\":6659:6660   */\n      0x04\n        /* \"#utility.yul\":6652:6667   */\n      mstore\n        /* \"#utility.yul\":6686:6690   */\n      0x24\n        /* \"#utility.yul\":6683:6684   */\n      0x00\n        /* \"#utility.yul\":6676:6691   */\n      revert\n        /* \"#utility.yul\":6703:7023   */\n    tag_36:\n        /* \"#utility.yul\":6747:6753   */\n      0x00\n        /* \"#utility.yul\":6784:6785   */\n      0x02\n        /* \"#utility.yul\":6778:6782   */\n      dup3\n        /* \"#utility.yul\":6774:6786   */\n      div\n        /* \"#utility.yul\":6764:6786   */\n      swap1\n      pop\n        /* \"#utility.yul\":6831:6832   */\n      0x01\n        /* \"#utility.yul\":6825:6829   */\n      dup3\n        /* \"#utility.yul\":6821:6833   */\n      and\n        /* \"#utility.yul\":6852:6870   */\n      dup1\n        /* \"#utility.yul\":6842:6923   */\n      tag_150\n      jumpi\n        /* \"#utility.yul\":6908:6912   */\n      0x7f\n        /* \"#utility.yul\":6900:6906   */\n      dup3\n        /* \"#utility.yul\":6896:6913   */\n      and\n        /* \"#utility.yul\":6886:6913   */\n      swap2\n      pop\n        /* \"#utility.yul\":6842:6923   */\n    tag_150:\n        /* \"#utility.yul\":6970:6972   */\n      0x20\n        /* \"#utility.yul\":6962:6968   */\n      dup3\n        /* \"#utility.yul\":6959:6973   */\n      lt\n        /* \"#utility.yul\":6939:6957   */\n      dup2\n        /* \"#utility.yul\":6936:6974   */\n      sub\n        /* \"#utility.yul\":6933:7017   */\n      tag_151\n      jumpi\n        /* \"#utility.yul\":6989:7007   */\n      tag_152\n      tag_64\n      jump\t// in\n    tag_152:\n        /* \"#utility.yul\":6933:7017   */\n    tag_151:\n        /* \"#utility.yul\":6754:7023   */\n      pop\n        /* \"#utility.yul\":6703:7023   */\n      swap2\n      swap1\n      pop\n      jump\t// out\n        /* \"#utility.yul\":7029:7170   */\n    tag_65:\n        /* \"#utility.yul\":7078:7082   */\n      0x00\n        /* \"#utility.yul\":7101:7104   */\n      dup2\n        /* \"#utility.yul\":7093:7104   */\n      swap1\n      pop\n        /* \"#utility.yul\":7124:7127   */\n      dup2\n        /* \"#utility.yul\":7121:7122   */\n      0x00\n        /* \"#utility.yul\":7114:7128   */\n      mstore\n        /* \"#utility.yul\":7158:7162   */\n      0x20\n        /* \"#utility.yul\":7155:7156   */\n      0x00\n        /* \"#utility.yul\":7145:7163   */\n      keccak256\n        /* \"#utility.yul\":7137:7163   */\n      swap1\n      pop\n        /* \"#utility.yul\":7029:7170   */\n      swap2\n      swap1\n      pop\n      jump\t// out\n        /* \"#utility.yul\":7176:7269   */\n    tag_66:\n        /* \"#utility.yul\":7213:7219   */\n      0x00\n        /* \"#utility.yul\":7260:7262   */\n      0x20\n        /* \"#utility.yul\":7255:7257   */\n      0x1f\n        /* \"#utility.yul\":7248:7253   */\n      dup4\n        /* \"#utility.yul\":7244:7258   */\n      add\n        /* \"#utility.yul\":7240:7263   */\n      div\n        /* \"#utility.yul\":7230:7263   */\n      swap1\n      pop\n        /* \"#utility.yul\":7176:7269   */\n      swap2\n      swap1\n      pop\n      jump\t// out\n        /* \"#utility.yul\":7275:7382   */\n    tag_67:\n        /* \"#utility.yul\":7319:7327   */\n      0x00\n        /* \"#utility.yul\":7369:7374   */\n      dup3\n        /* \"#utility.yul\":7363:7367   */\n      dup3\n        /* \"#utility.yul\":7359:7375   */\n      shl\n        /* \"#utility.yul\":7338:7375   */\n      swap1\n      pop\n        /* \"#utility.yul\":7275:7382   */\n      swap3\n      swap2\n      pop\n      pop\n      jump\t// out\n        /* \"#utility.yul\":7388:7781   */\n    tag_68:\n        /* \"#utility.yul\":7457:7463   */\n      0x00\n        /* \"#utility.yul\":7507:7508   */\n      0x08\n        /* \"#utility.yul\":7495:7505   */\n      dup4\n        /* \"#utility.yul\":7491:7509   */\n      mul\n        /* \"#utility.yul\":7530:7627   */\n      tag_157\n        /* \"#utility.yul\":7560:7626   */\n      0xffffffffffffffffffffffffffffffffffffffffffffffffffffffffffffffff\n        /* \"#utility.yul\":7549:7558   */\n      dup3\n        /* \"#utility.yul\":7530:7627   */\n      tag_67\n      jump\t// in\n    tag_157:\n        /* \"#utility.yul\":7648:7687   */\n      tag_158\n        /* \"#utility.yul\":7678:7686   */\n      dup7\n        /* \"#utility.yul\":7667:7676   */\n      dup4\n        /* \"#utility.yul\":7648:7687   */\n      tag_67\n      jump\t// in\n    tag_158:\n        /* \"#utility.yul\":7636:7687   */\n      swap6\n      pop\n        /* \"#utility.yul\":7720:7724   */\n      dup1\n        /* \"#utility.yul\":7716:7725   */\n      not\n        /* \"#utility.yul\":7709:7714   */\n      dup5\n        /* \"#utility.yul\":7705:7726   */\n      and\n        /* \"#utility.yul\":7696:7726   */\n      swap4\n      pop\n        /* \"#utility.yul\":7769:7773   */\n      dup1\n        /* \"#utility.yul\":7759:7767   */\n      dup7\n        /* \"#utility.yul\":7755:7774   */\n      and\n        /* \"#utility.yul\":7748:7753   */\n      dup5\n        /* \"#utility.yul\":7745:7775   */\n      or\n        /* \"#utility.yul\":7735:7775   */\n      swap3\n      pop\n        /* \"#utility.yul\":7464:7781   */\n      pop\n      pop\n        /* \"#utility.yul\":7388:7781   */\n      swap4\n      swap3\n      pop\n      pop\n      pop\n      jump\t// out\n        /* \"#utility.yul\":7787:7847   */\n    tag_69:\n        /* \"#utility.yul\":7815:7818   */\n      0x00\n        /* \"#utility.yul\":7836:7841   */\n      dup2\n        /* \"#utility.yul\":7829:7841   */\n      swap1\n      pop\n        /* \"#utility.yul\":7787:7847   */\n      swap2\n      swap1\n      pop\n      jump\t// out\n        /* \"#utility.yul\":7853:7995   */\n    tag_70:\n        /* \"#utility.yul\":7903:7912   */\n      0x00\n        /* \"#utility.yul\":7936:7989   */\n      tag_161\n        /* \"#utility.yul\":7954:7988   */\n      tag_162\n        /* \"#utility.yul\":7963:7987   */\n      tag_163\n        /* \"#utility.yul\":7981:7986   */\n      dup5\n        /* \"#utility.yul\":7963:7987   */\n      tag_58\n      jump\t// in\n    tag_163:\n        /* \"#utility.yul\":7954:7988   */\n      tag_69\n      jump\t// in\n    tag_162:\n        /* \"#utility.yul\":7936:7989   */\n      tag_58\n      jump\t// in\n    tag_161:\n        /* \"#utility.yul\":7923:7989   */\n      swap1\n      pop\n        /* \"#utility.yul\":7853:7995   */\n      swap2\n      swap1\n      pop\n      jump\t// out\n        /* \"#utility.yul\":8001:8076   */\n    tag_71:\n        /* \"#utility.yul\":8044:8047   */\n      0x00\n        /* \"#utility.yul\":8065:8070   */\n      dup2\n        /* \"#utility.yul\":8058:8070   */\n      swap1\n      pop\n        /* \"#utility.yul\":8001:8076   */\n      swap2\n      swap1\n      pop\n      jump\t// out\n        /* \"#utility.yul\":8082:8351   */\n    tag_72:\n        /* \"#utility.yul\":8192:8231   */\n      tag_166\n        /* \"#utility.yul\":8223:8230   */\n      dup4\n        /* \"#utility.yul\":8192:8231   */\n      tag_70\n      jump\t// in\n    tag_166:\n        /* \"#utility.yul\":8253:8344   */\n      tag_167\n        /* \"#utility.yul\":8302:8343   */\n      tag_168\n        /* \"#utility.yul\":8326:8342   */\n      dup3\n        /* \"#utility.yul\":8302:8343   */\n      tag_71\n      jump\t// in\n    tag_168:\n        /* \"#utility.yul\":8294:8300   */\n      dup5\n        /* \"#utility.yul\":8287:8291   */\n      dup5\n        /* \"#utility.yul\":8281:8292   */\n      sload\n        /* \"#utility.yul\":8253:8344   */\n      tag_68\n      jump\t// in\n    tag_167:\n        /* \"#utility.yul\":8247:8251   */\n      dup3\n        /* \"#utility.yul\":8240:8345   */\n      sstore\n        /* \"#utility.yul\":8158:8351   */\n      pop\n        /* \"#utility.yul\":8082:8351   */\n      pop\n      pop\n      pop\n      jump\t// out\n        /* \"#utility.yul\":8357:8430   */\n    tag_73:\n        /* \"#utility.yul\":8402:8405   */\n      0x00\n        /* \"#utility.yul\":8357:8430   */\n      swap1\n      jump\t// out\n        /* \"#utility.yul\":8436:8625   */\n    tag_74:\n        /* \"#utility.yul\":8513:8545   */\n      tag_171\n      tag_73\n      jump\t// in\n    tag_171:\n        /* \"#utility.yul\":8554:8619   */\n      tag_172\n        /* \"#utility.yul\":8612:8618   */\n      dup2\n        /* \"#utility.yul\":8604:8610   */\n      dup5\n        /* \"#utility.yul\":8598:8602   */\n      dup5\n        /* \"#utility.yul\":8554:8619   */\n      tag_72\n      jump\t// in\n    tag_172:\n        /* \"#utility.yul\":8489:8625   */\n      pop\n        /* \"#utility.yul\":8436:8625   */\n      pop\n      pop\n      jump\t// out\n        /* \"#utility.yul\":8631:8817   */\n    tag_75:\n        /* \"#utility.yul\":8691:8811   */\n    tag_174:\n        /* \"#utility.yul\":8708:8711   */\n      dup2\n        /* \"#utility.yul\":8701:8706   */\n      dup2\n        /* \"#utility.yul\":8698:8712   */\n      lt\n        /* \"#utility.yul\":8691:8811   */\n      iszero\n      tag_176\n      jumpi\n        /* \"#utility.yul\":8762:8801   */\n      tag_177\n        /* \"#utility.yul\":8799:8800   */\n      0x00\n        /* \"#utility.yul\":8792:8797   */\n      dup3\n        /* \"#utility.yul\":8762:8801   */\n      tag_74\n      jump\t// in\n    tag_177:\n        /* \"#utility.yul\":8735:8736   */\n      0x01\n        /* \"#utility.yul\":8728:8733   */\n      dup2\n        /* \"#utility.yul\":8724:8737   */\n      add\n        /* \"#utility.yul\":8715:8737   */\n      swap1\n      pop\n        /* \"#utility.yul\":8691:8811   */\n      jump(tag_174)\n    tag_176:\n        /* \"#utility.yul\":8631:8817   */\n      pop\n      pop\n      jump\t// out\n        /* \"#utility.yul\":8823:9366   */\n    tag_76:\n        /* \"#utility.yul\":8924:8926   */\n      0x1f\n        /* \"#utility.yul\":8919:8922   */\n      dup3\n        /* \"#utility.yul\":8916:8927   */\n      gt\n        /* \"#utility.yul\":8913:9359   */\n      iszero\n      tag_179\n      jumpi\n        /* \"#utility.yul\":8958:8996   */\n      tag_180\n        /* \"#utility.yul\":8990:8995   */\n      dup2\n        /* \"#utility.yul\":8958:8996   */\n      tag_65\n      jump\t// in\n    tag_180:\n        /* \"#utility.yul\":9042:9071   */\n      tag_181\n        /* \"#utility.yul\":9060:9070   */\n      dup5\n        /* \"#utility.yul\":9042:9071   */\n      tag_66\n      jump\t// in\n    tag_181:\n        /* \"#utility.yul\":9032:9040   */\n      dup2\n        /* \"#utility.yul\":9028:9072   */\n      add\n        /* \"#utility.yul\":9225:9227   */\n      0x20\n        /* \"#utility.yul\":9213:9223   */\n      dup6\n        /* \"#utility.yul\":9210:9228   */\n      lt\n        /* \"#utility.yul\":9207:9256   */\n      iszero\n      tag_182\n      jumpi\n        /* \"#utility.yul\":9246:9254   */\n      dup2\n        /* \"#utility.yul\":9231:9254   */\n      swap1\n      pop\n        /* \"#utility.yul\":9207:9256   */\n    tag_182:\n        /* \"#utility.yul\":9269:9349   */\n      tag_183\n        /* \"#utility.yul\":9325:9347   */\n      tag_184\n        /* \"#utility.yul\":9343:9346   */\n      dup6\n        /* \"#utility.yul\":9325:9347   */\n      tag_66\n      jump\t// in\n    tag_184:\n        /* \"#utility.yul\":9315:9323   */\n      dup4\n        /* \"#utility.yul\":9311:9348   */\n      add\n        /* \"#utility.yul\":9298:9309   */\n      dup3\n        /* \"#utility.yul\":9269:9349   */\n      tag_75\n      jump\t// in\n    tag_183:\n        /* \"#utility.yul\":8928:9359   */\n      pop\n      pop\n        /* \"#utility.yul\":8913:9359   */\n    tag_179:\n        /* \"#utility.yul\":8823:9366   */\n      pop\n      pop\n      pop\n      jump\t// out\n        /* \"#utility.yul\":9372:9489   */\n    tag_77:\n        /* \"#utility.yul\":9426:9434   */\n      0x00\n        /* \"#utility.yul\":9476:9481   */\n      dup3\n        /* \"#utility.yul\":9470:9474   */\n      dup3\n        /* \"#utility.yul\":9466:9482   */\n      shr\n        /* \"#utility.yul\":9445:9482   */\n      swap1\n      pop\n        /* \"#utility.yul\":9372:9489   */\n      swap3\n      swap2\n      pop\n      pop\n      jump\t// out\n        /* \"#utility.yul\":9495:9664   */\n    tag_78:\n        /* \"#utility.yul\":9539:9545   */\n      0x00\n        /* \"#utility.yul\":9572:9623   */\n      tag_187\n        /* \"#utility.yul\":9620:9621   */\n      0x00\n        /* \"#utility.yul\":9616:9622   */\n      not\n        /* \"#utility.yul\":9608:9613   */\n      dup5\n        /* \"#utility.yul\":9605:9606   */\n      0x08\n        /* \"#utility.yul\":9601:9614   */\n      mul\n        /* \"#utility.yul\":9572:9623   */\n      tag_77\n      jump\t// in\n    tag_187:\n        /* \"#utility.yul\":9568:9624   */\n      not\n        /* \"#utility.yul\":9653:9657   */\n      dup1\n        /* \"#utility.yul\":9647:9651   */\n      dup4\n        /* \"#utility.yul\":9643:9658   */\n      and\n        /* \"#utility.yul\":9633:9658   */\n      swap2\n      pop\n        /* \"#utility.yul\":9546:9664   */\n      pop\n        /* \"#utility.yul\":9495:9664   */\n      swap3\n      swap2\n      pop\n      pop\n      jump\t// out\n        /* \"#utility.yul\":9669:9964   */\n    tag_79:\n        /* \"#utility.yul\":9745:9749   */\n      0x00\n        /* \"#utility.yul\":9891:9920   */\n      tag_189\n        /* \"#utility.yul\":9916:9919   */\n      dup4\n        /* \"#utility.yul\":9910:9914   */\n      dup4\n        /* \"#utility.yul\":9891:9920   */\n      tag_78\n      jump\t// in\n    tag_189:\n        /* \"#utility.yul\":9883:9920   */\n      swap2\n      pop\n        /* \"#utility.yul\":9953:9956   */\n      dup3\n        /* \"#utility.yul\":9950:9951   */\n      0x02\n        /* \"#utility.yul\":9946:9957   */\n      mul\n        /* \"#utility.yul\":9940:9944   */\n      dup3\n        /* \"#utility.yul\":9937:9958   */\n      or\n        /* \"#utility.yul\":9929:9958   */\n      swap1\n      pop\n        /* \"#utility.yul\":9669:9964   */\n      swap3\n      swap2\n      pop\n      pop\n      jump\t// out\n        /* \"#utility.yul\":9969:11364   */\n    tag_28:\n        /* \"#utility.yul\":10086:10123   */\n      tag_191\n        /* \"#utility.yul\":10119:10122   */\n      dup3\n        /* \"#utility.yul\":10086:10123   */\n      tag_54\n      jump\t// in\n    tag_191:\n        /* \"#utility.yul\":10188:10206   */\n      0xffffffffffffffff\n        /* \"#utility.yul\":10180:10186   */\n      dup2\n        /* \"#utility.yul\":10177:10207   */\n      gt\n        /* \"#utility.yul\":10174:10230   */\n      iszero\n      tag_192\n      jumpi\n        /* \"#utility.yul\":10210:10228   */\n      tag_193\n      tag_47\n      jump\t// in\n    tag_193:\n        /* \"#utility.yul\":10174:10230   */\n    tag_192:\n        /* \"#utility.yul\":10254:10292   */\n      tag_194\n        /* \"#utility.yul\":10286:10290   */\n      dup3\n        /* \"#utility.yul\":10280:10291   */\n      sload\n        /* \"#utility.yul\":10254:10292   */\n      tag_36\n      jump\t// in\n    tag_194:\n        /* \"#utility.yul\":10339:10406   */\n      tag_195\n        /* \"#utility.yul\":10399:10405   */\n      dup3\n        /* \"#utility.yul\":10391:10397   */\n      dup3\n        /* \"#utility.yul\":10385:10389   */\n      dup6\n        /* \"#utility.yul\":10339:10406   */\n      tag_76\n      jump\t// in\n    tag_195:\n        /* \"#utility.yul\":10433:10434   */\n      0x00\n        /* \"#utility.yul\":10457:10461   */\n      0x20\n        /* \"#utility.yul\":10444:10461   */\n      swap1\n      pop\n        /* \"#utility.yul\":10489:10491   */\n      0x1f\n        /* \"#utility.yul\":10481:10487   */\n      dup4\n        /* \"#utility.yul\":10478:10492   */\n      gt\n        /* \"#utility.yul\":10506:10507   */\n      0x01\n        /* \"#utility.yul\":10501:11119   */\n      dup2\n      eq\n      tag_197\n      jumpi\n        /* \"#utility.yul\":11163:11164   */\n      0x00\n        /* \"#utility.yul\":11180:11186   */\n      dup5\n        /* \"#utility.yul\":11177:11254   */\n      iszero\n      tag_198\n      jumpi\n        /* \"#utility.yul\":11229:11238   */\n      dup3\n        /* \"#utility.yul\":11224:11227   */\n      dup8\n        /* \"#utility.yul\":11220:11239   */\n      add\n        /* \"#utility.yul\":11214:11240   */\n      mload\n        /* \"#utility.yul\":11205:11240   */\n      swap1\n      pop\n        /* \"#utility.yul\":11177:11254   */\n    tag_198:\n        /* \"#utility.yul\":11280:11347   */\n      tag_199\n        /* \"#utility.yul\":11340:11346   */\n      dup6\n        /* \"#utility.yul\":11333:11338   */\n      dup3\n        /* \"#utility.yul\":11280:11347   */\n      tag_79\n      jump\t// in\n    tag_199:\n        /* \"#utility.yul\":11274:11278   */\n      dup7\n        /* \"#utility.yul\":11267:11348   */\n      sstore\n        /* \"#utility.yul\":11136:11358   */\n      pop\n        /* \"#utility.yul\":10471:11358   */\n      jump(tag_196)\n        /* \"#utility.yul\":10501:11119   */\n    tag_197:\n        /* \"#utility.yul\":10553:10557   */\n      0x1f\n        /* \"#utility.yul\":10549:10558   */\n      not\n        /* \"#utility.yul\":10541:10547   */\n      dup5\n        /* \"#utility.yul\":10537:10559   */\n      and\n        /* \"#utility.yul\":10587:10624   */\n      tag_200\n        /* \"#utility.yul\":10619:10623   */\n      dup7\n        /* \"#utility.yul\":10587:10624   */\n      tag_65\n      jump\t// in\n    tag_200:\n        /* \"#utility.yul\":10646:10647   */\n      0x00\n        /* \"#utility.yul\":10660:10868   */\n    tag_201:\n        /* \"#utility.yul\":10674:10681   */\n      dup3\n        /* \"#utility.yul\":10671:10672   */\n      dup2\n        /* \"#utility.yul\":10668:10682   */\n      lt\n        /* \"#utility.yul\":10660:10868   */\n      iszero\n      tag_203\n      jumpi\n        /* \"#utility.yul\":10753:10762   */\n      dup5\n        /* \"#utility.yul\":10748:10751   */\n      dup10\n        /* \"#utility.yul\":10744:10763   */\n      add\n        /* \"#utility.yul\":10738:10764   */\n      mload\n        /* \"#utility.yul\":10730:10736   */\n      dup3\n        /* \"#utility.yul\":10723:10765   */\n      sstore\n        /* \"#utility.yul\":10804:10805   */\n      0x01\n        /* \"#utility.yul\":10796:10802   */\n      dup3\n        /* \"#utility.yul\":10792:10806   */\n      add\n        /* \"#utility.yul\":10782:10806   */\n      swap2\n      pop\n        /* \"#utility.yul\":10851:10853   */\n      0x20\n        /* \"#utility.yul\":10840:10849   */\n      dup6\n        /* \"#utility.yul\":10836:10854   */\n      add\n        /* \"#utility.yul\":10823:10854   */\n      swap5\n      pop\n        /* \"#utility.yul\":10697:10701   */\n      0x20\n        /* \"#utility.yul\":10694:10695   */\n      dup2\n        /* \"#utility.yul\":10690:10702   */\n      add\n        /* \"#utility.yul\":10685:10702   */\n      swap1\n      pop\n        /* \"#utility.yul\":10660:10868   */\n      jump(tag_201)\n    tag_203:\n        /* \"#utility.yul\":10896:10902   */\n      dup7\n        /* \"#utility.yul\":10887:10894   */\n      dup4\n        /* \"#utility.yul\":10884:10903   */\n      lt\n        /* \"#utility.yul\":10881:11060   */\n      iszero\n      tag_204\n      jumpi\n        /* \"#utility.yul\":10954:10963   */\n      dup5\n        /* \"#utility.yul\":10949:10952   */\n      dup10\n        /* \"#utility.yul\":10945:10964   */\n      add\n        /* \"#utility.yul\":10939:10965   */\n      mload\n        /* \"#utility.yul\":10997:11045   */\n      tag_205\n        /* \"#utility.yul\":11039:11043   */\n      0x1f\n        /* \"#utility.yul\":11031:11037   */\n      dup10\n        /* \"#utility.yul\":11027:11044   */\n      and\n        /* \"#utility.yul\":11016:11025   */\n      dup3\n        /* \"#utility.yul\":10997:11045   */\n      tag_78\n      jump\t// in\n    tag_205:\n        /* \"#utility.yul\":10989:10995   */\n      dup4\n        /* \"#utility.yul\":10982:11046   */\n      sstore\n        /* \"#utility.yul\":10904:11060   */\n      pop\n        /* \"#utility.yul\":10881:11060   */\n    tag_204:\n        /* \"#utility.yul\":11106:11107   */\n      0x01\n        /* \"#utility.yul\":11102:11103   */\n      0x02\n        /* \"#utility.yul\":11094:11100   */\n      dup9\n        /* \"#utility.yul\":11090:11104   */\n      mul\n        /* \"#utility.yul\":11086:11108   */\n      add\n        /* \"#utility.yul\":11080:11084   */\n      dup9\n        /* \"#utility.yul\":11073:11109   */\n      sstore\n        /* \"#utility.yul\":10508:11119   */\n      pop\n      pop\n      pop\n        /* \"#utility.yul\":10471:11358   */\n    tag_196:\n      pop\n        /* \"#utility.yul\":10061:11364   */\n      pop\n      pop\n      pop\n        /* \"#utility.yul\":9969:11364   */\n      pop\n      pop\n      jump\t// out\n\n    auxdata: 0xa2646970667358221220ab802ca51a6f451ee0ee3f368c62fc1cdc2bfd259e40527c93e753585bd9398164736f6c634300081a0033\n}\n",
				"bytecode": {
					"linkReferences": {},
					"object": "608060405260015f806101000a81548160ff0219169083151502179055505f8060016101000a81548160ff021916908315150217905550630f3b77e46001557fffffffffffffffffffffffffffffffffffffffffffffffffffffffffffffffff6002557f48656c6c6f20576f726c642100000000000000000000000000000000000000006003556040518060400160405280600b81526020017f48656c6c6f20576f726c64000000000000000000000000000000000000000000815250600490816100ca919061036a565b50735b38da6a701c568545dcfcb03fcb875f56beddc460055f6101000a81548173ffffffffffffffffffffffffffffffffffffffff021916908373ffffffffffffffffffffffffffffffffffffffff16021790555034801561012a575f80fd5b50610439565b5f81519050919050565b7f4e487b71000000000000000000000000000000000000000000000000000000005f52604160045260245ffd5b7f4e487b71000000000000000000000000000000000000000000000000000000005f52602260045260245ffd5b5f60028204905060018216806101ab57607f821691505b6020821081036101be576101bd610167565b5b50919050565b5f819050815f5260205f209050919050565b5f6020601f8301049050919050565b5f82821b905092915050565b5f600883026102207fffffffffffffffffffffffffffffffffffffffffffffffffffffffffffffffff826101e5565b61022a86836101e5565b95508019841693508086168417925050509392505050565b5f819050919050565b5f819050919050565b5f61026e61026961026484610242565b61024b565b610242565b9050919050565b5f819050919050565b61028783610254565b61029b61029382610275565b8484546101f1565b825550505050565b5f90565b6102af6102a3565b6102ba81848461027e565b505050565b5b818110156102dd576102d25f826102a7565b6001810190506102c0565b5050565b601f821115610322576102f3816101c4565b6102fc846101d6565b8101602085101561030b578190505b61031f610317856101d6565b8301826102bf565b50505b505050565b5f82821c905092915050565b5f6103425f1984600802610327565b1980831691505092915050565b5f61035a8383610333565b9150826002028217905092915050565b61037382610130565b67ffffffffffffffff81111561038c5761038b61013a565b5b6103968254610194565b6103a18282856102e1565b5f60209050601f8311600181146103d2575f84156103c0578287015190505b6103ca858261034f565b865550610431565b601f1984166103e0866101c4565b5f5b82811015610407578489015182556001820191506020850194506020810190506103e2565b868310156104245784890151610420601f891682610333565b8355505b6001600288020188555050505b505050505050565b6108a5806104465f395ff3fe608060405234801561000f575f80fd5b506004361061004a575f3560e01c80630bf803e41461004e5780638262963b1461007e57806390ffded81461009a578063ef5fb05b146100b6575b5f80fd5b610068600480360381019061006391906103cd565b6100d4565b6040516100759190610474565b60405180910390f35b610098600480360381019061009391906104c7565b6100fd565b005b6100b460048036038101906100af91906103cd565b6101d5565b005b6100be6101e8565b6040516100cb9190610474565b60405180910390f35b6060816040516020016100e79190610581565b6040516020818303038152906040529050919050565b816004908161010c91906107a0565b505f60405180606001604052808481526020018381526020013373ffffffffffffffffffffffffffffffffffffffff168152509050600681908060018154018082558091505060019003905f5260205f2090600302015f909190919091505f820151815f01908161017d91906107a0565b50602082015181600101556040820151816002015f6101000a81548173ffffffffffffffffffffffffffffffffffffffff021916908373ffffffffffffffffffffffffffffffffffffffff1602179055505050505050565b80600490816101e491906107a0565b5050565b606061027b600480546101fa906105d3565b80601f0160208091040260200160405190810160405280929190818152602001828054610226906105d3565b80156102715780601f1061024857610100808354040283529160200191610271565b820191905f5260205f20905b81548152906001019060200180831161025457829003601f168201915b50505050506100d4565b905090565b5f604051905090565b5f80fd5b5f80fd5b5f80fd5b5f80fd5b5f601f19601f8301169050919050565b7f4e487b71000000000000000000000000000000000000000000000000000000005f52604160045260245ffd5b6102df82610299565b810181811067ffffffffffffffff821117156102fe576102fd6102a9565b5b80604052505050565b5f610310610280565b905061031c82826102d6565b919050565b5f67ffffffffffffffff82111561033b5761033a6102a9565b5b61034482610299565b9050602081019050919050565b828183375f83830152505050565b5f61037161036c84610321565b610307565b90508281526020810184848401111561038d5761038c610295565b5b610398848285610351565b509392505050565b5f82601f8301126103b4576103b3610291565b5b81356103c484826020860161035f565b91505092915050565b5f602082840312156103e2576103e1610289565b5b5f82013567ffffffffffffffff8111156103ff576103fe61028d565b5b61040b848285016103a0565b91505092915050565b5f81519050919050565b5f82825260208201905092915050565b8281835e5f83830152505050565b5f61044682610414565b610450818561041e565b935061046081856020860161042e565b61046981610299565b840191505092915050565b5f6020820190508181035f83015261048c818461043c565b905092915050565b5f819050919050565b6104a681610494565b81146104b0575f80fd5b50565b5f813590506104c18161049d565b92915050565b5f80604083850312156104dd576104dc610289565b5b5f83013567ffffffffffffffff8111156104fa576104f961028d565b5b610506858286016103a0565b9250506020610517858286016104b3565b9150509250929050565b5f81905092915050565b5f61053582610414565b61053f8185610521565b935061054f81856020860161042e565b80840191505092915050565b7f20666f726d204672616e6b277320636f6e747261637400000000000000000000815250565b5f61058c828461052b565b91506105978261055b565b60168201915081905092915050565b7f4e487b71000000000000000000000000000000000000000000000000000000005f52602260045260245ffd5b5f60028204905060018216806105ea57607f821691505b6020821081036105fd576105fc6105a6565b5b50919050565b5f819050815f5260205f209050919050565b5f6020601f8301049050919050565b5f82821b905092915050565b5f6008830261065f7fffffffffffffffffffffffffffffffffffffffffffffffffffffffffffffffff82610624565b6106698683610624565b95508019841693508086168417925050509392505050565b5f819050919050565b5f6106a461069f61069a84610494565b610681565b610494565b9050919050565b5f819050919050565b6106bd8361068a565b6106d16106c9826106ab565b848454610630565b825550505050565b5f90565b6106e56106d9565b6106f08184846106b4565b505050565b5b81811015610713576107085f826106dd565b6001810190506106f6565b5050565b601f8211156107585761072981610603565b61073284610615565b81016020851015610741578190505b61075561074d85610615565b8301826106f5565b50505b505050565b5f82821c905092915050565b5f6107785f198460080261075d565b1980831691505092915050565b5f6107908383610769565b9150826002028217905092915050565b6107a982610414565b67ffffffffffffffff8111156107c2576107c16102a9565b5b6107cc82546105d3565b6107d7828285610717565b5f60209050601f831160018114610808575f84156107f6578287015190505b6108008582610785565b865550610867565b601f19841661081686610603565b5f5b8281101561083d57848901518255600182019150602085019450602081019050610818565b8683101561085a5784890151610856601f891682610769565b8355505b6001600288020188555050505b50505050505056fea2646970667358221220ab802ca51a6f451ee0ee3f368c62fc1cdc2bfd259e40527c93e753585bd9398164736f6c634300081a0033",
					"opcodes": "PUSH1 0x80 PUSH1 0x40 MSTORE PUSH1 0x1 PUSH0 DUP1 PUSH2 0x100 EXP DUP2 SLOAD DUP2 PUSH1 0xFF MUL NOT AND SWAP1 DUP4 ISZERO ISZERO MUL OR SWAP1 SSTORE POP PUSH0 DUP1 PUSH1 0x1 PUSH2 0x100 EXP DUP2 SLOAD DUP2 PUSH1 0xFF MUL NOT AND SWAP1 DUP4 ISZERO ISZERO MUL OR SWAP1 SSTORE POP PUSH4 0xF3B77E4 PUSH1 0x1 SSTORE PUSH32 0xFFFFFFFFFFFFFFFFFFFFFFFFFFFFFFFFFFFFFFFFFFFFFFFFFFFFFFFFFFFFFFFF PUSH1 0x2 SSTORE PUSH32 0x48656C6C6F20576F726C64210000000000000000000000000000000000000000 PUSH1 0x3 SSTORE PUSH1 0x40 MLOAD DUP1 PUSH1 0x40 ADD PUSH1 0x40 MSTORE DUP1 PUSH1 0xB DUP2 MSTORE PUSH1 0x20 ADD PUSH32 0x48656C6C6F20576F726C64000000000000000000000000000000000000000000 DUP2 MSTORE POP PUSH1 0x4 SWAP1 DUP2 PUSH2 0xCA SWAP2 SWAP1 PUSH2 0x36A JUMP JUMPDEST POP PUSH20 0x5B38DA6A701C568545DCFCB03FCB875F56BEDDC4 PUSH1 0x5 PUSH0 PUSH2 0x100 EXP DUP2 SLOAD DUP2 PUSH20 0xFFFFFFFFFFFFFFFFFFFFFFFFFFFFFFFFFFFFFFFF MUL NOT AND SWAP1 DUP4 PUSH20 0xFFFFFFFFFFFFFFFFFFFFFFFFFFFFFFFFFFFFFFFF AND MUL OR SWAP1 SSTORE POP CALLVALUE DUP1 ISZERO PUSH2 0x12A JUMPI PUSH0 DUP1 REVERT JUMPDEST POP PUSH2 0x439 JUMP JUMPDEST PUSH0 DUP2 MLOAD SWAP1 POP SWAP2 SWAP1 POP JUMP JUMPDEST PUSH32 0x4E487B7100000000000000000000000000000000000000000000000000000000 PUSH0 MSTORE PUSH1 0x41 PUSH1 0x4 MSTORE PUSH1 0x24 PUSH0 REVERT JUMPDEST PUSH32 0x4E487B7100000000000000000000000000000000000000000000000000000000 PUSH0 MSTORE PUSH1 0x22 PUSH1 0x4 MSTORE PUSH1 0x24 PUSH0 REVERT JUMPDEST PUSH0 PUSH1 0x2 DUP3 DIV SWAP1 POP PUSH1 0x1 DUP3 AND DUP1 PUSH2 0x1AB JUMPI PUSH1 0x7F DUP3 AND SWAP2 POP JUMPDEST PUSH1 0x20 DUP3 LT DUP2 SUB PUSH2 0x1BE JUMPI PUSH2 0x1BD PUSH2 0x167 JUMP JUMPDEST JUMPDEST POP SWAP2 SWAP1 POP JUMP JUMPDEST PUSH0 DUP2 SWAP1 POP DUP2 PUSH0 MSTORE PUSH1 0x20 PUSH0 KECCAK256 SWAP1 POP SWAP2 SWAP1 POP JUMP JUMPDEST PUSH0 PUSH1 0x20 PUSH1 0x1F DUP4 ADD DIV SWAP1 POP SWAP2 SWAP1 POP JUMP JUMPDEST PUSH0 DUP3 DUP3 SHL SWAP1 POP SWAP3 SWAP2 POP POP JUMP JUMPDEST PUSH0 PUSH1 0x8 DUP4 MUL PUSH2 0x220 PUSH32 0xFFFFFFFFFFFFFFFFFFFFFFFFFFFFFFFFFFFFFFFFFFFFFFFFFFFFFFFFFFFFFFFF DUP3 PUSH2 0x1E5 JUMP JUMPDEST PUSH2 0x22A DUP7 DUP4 PUSH2 0x1E5 JUMP JUMPDEST SWAP6 POP DUP1 NOT DUP5 AND SWAP4 POP DUP1 DUP7 AND DUP5 OR SWAP3 POP POP POP SWAP4 SWAP3 POP POP POP JUMP JUMPDEST PUSH0 DUP2 SWAP1 POP SWAP2 SWAP1 POP JUMP JUMPDEST PUSH0 DUP2 SWAP1 POP SWAP2 SWAP1 POP JUMP JUMPDEST PUSH0 PUSH2 0x26E PUSH2 0x269 PUSH2 0x264 DUP5 PUSH2 0x242 JUMP JUMPDEST PUSH2 0x24B JUMP JUMPDEST PUSH2 0x242 JUMP JUMPDEST SWAP1 POP SWAP2 SWAP1 POP JUMP JUMPDEST PUSH0 DUP2 SWAP1 POP SWAP2 SWAP1 POP JUMP JUMPDEST PUSH2 0x287 DUP4 PUSH2 0x254 JUMP JUMPDEST PUSH2 0x29B PUSH2 0x293 DUP3 PUSH2 0x275 JUMP JUMPDEST DUP5 DUP5 SLOAD PUSH2 0x1F1 JUMP JUMPDEST DUP3 SSTORE POP POP POP POP JUMP JUMPDEST PUSH0 SWAP1 JUMP JUMPDEST PUSH2 0x2AF PUSH2 0x2A3 JUMP JUMPDEST PUSH2 0x2BA DUP2 DUP5 DUP5 PUSH2 0x27E JUMP JUMPDEST POP POP POP JUMP JUMPDEST JUMPDEST DUP2 DUP2 LT ISZERO PUSH2 0x2DD JUMPI PUSH2 0x2D2 PUSH0 DUP3 PUSH2 0x2A7 JUMP JUMPDEST PUSH1 0x1 DUP2 ADD SWAP1 POP PUSH2 0x2C0 JUMP JUMPDEST POP POP JUMP JUMPDEST PUSH1 0x1F DUP3 GT ISZERO PUSH2 0x322 JUMPI PUSH2 0x2F3 DUP2 PUSH2 0x1C4 JUMP JUMPDEST PUSH2 0x2FC DUP5 PUSH2 0x1D6 JUMP JUMPDEST DUP2 ADD PUSH1 0x20 DUP6 LT ISZERO PUSH2 0x30B JUMPI DUP2 SWAP1 POP JUMPDEST PUSH2 0x31F PUSH2 0x317 DUP6 PUSH2 0x1D6 JUMP JUMPDEST DUP4 ADD DUP3 PUSH2 0x2BF JUMP JUMPDEST POP POP JUMPDEST POP POP POP JUMP JUMPDEST PUSH0 DUP3 DUP3 SHR SWAP1 POP SWAP3 SWAP2 POP POP JUMP JUMPDEST PUSH0 PUSH2 0x342 PUSH0 NOT DUP5 PUSH1 0x8 MUL PUSH2 0x327 JUMP JUMPDEST NOT DUP1 DUP4 AND SWAP2 POP POP SWAP3 SWAP2 POP POP JUMP JUMPDEST PUSH0 PUSH2 0x35A DUP4 DUP4 PUSH2 0x333 JUMP JUMPDEST SWAP2 POP DUP3 PUSH1 0x2 MUL DUP3 OR SWAP1 POP SWAP3 SWAP2 POP POP JUMP JUMPDEST PUSH2 0x373 DUP3 PUSH2 0x130 JUMP JUMPDEST PUSH8 0xFFFFFFFFFFFFFFFF DUP2 GT ISZERO PUSH2 0x38C JUMPI PUSH2 0x38B PUSH2 0x13A JUMP JUMPDEST JUMPDEST PUSH2 0x396 DUP3 SLOAD PUSH2 0x194 JUMP JUMPDEST PUSH2 0x3A1 DUP3 DUP3 DUP6 PUSH2 0x2E1 JUMP JUMPDEST PUSH0 PUSH1 0x20 SWAP1 POP PUSH1 0x1F DUP4 GT PUSH1 0x1 DUP2 EQ PUSH2 0x3D2 JUMPI PUSH0 DUP5 ISZERO PUSH2 0x3C0 JUMPI DUP3 DUP8 ADD MLOAD SWAP1 POP JUMPDEST PUSH2 0x3CA DUP6 DUP3 PUSH2 0x34F JUMP JUMPDEST DUP7 SSTORE POP PUSH2 0x431 JUMP JUMPDEST PUSH1 0x1F NOT DUP5 AND PUSH2 0x3E0 DUP7 PUSH2 0x1C4 JUMP JUMPDEST PUSH0 JUMPDEST DUP3 DUP2 LT ISZERO PUSH2 0x407 JUMPI DUP5 DUP10 ADD MLOAD DUP3 SSTORE PUSH1 0x1 DUP3 ADD SWAP2 POP PUSH1 0x20 DUP6 ADD SWAP5 POP PUSH1 0x20 DUP2 ADD SWAP1 POP PUSH2 0x3E2 JUMP JUMPDEST DUP7 DUP4 LT ISZERO PUSH2 0x424 JUMPI DUP5 DUP10 ADD MLOAD PUSH2 0x420 PUSH1 0x1F DUP10 AND DUP3 PUSH2 0x333 JUMP JUMPDEST DUP4 SSTORE POP JUMPDEST PUSH1 0x1 PUSH1 0x2 DUP9 MUL ADD DUP9 SSTORE POP POP POP JUMPDEST POP POP POP POP POP POP JUMP JUMPDEST PUSH2 0x8A5 DUP1 PUSH2 0x446 PUSH0 CODECOPY PUSH0 RETURN INVALID PUSH1 0x80 PUSH1 0x40 MSTORE CALLVALUE DUP1 ISZERO PUSH2 0xF JUMPI PUSH0 DUP1 REVERT JUMPDEST POP PUSH1 0x4 CALLDATASIZE LT PUSH2 0x4A JUMPI PUSH0 CALLDATALOAD PUSH1 0xE0 SHR DUP1 PUSH4 0xBF803E4 EQ PUSH2 0x4E JUMPI DUP1 PUSH4 0x8262963B EQ PUSH2 0x7E JUMPI DUP1 PUSH4 0x90FFDED8 EQ PUSH2 0x9A JUMPI DUP1 PUSH4 0xEF5FB05B EQ PUSH2 0xB6 JUMPI JUMPDEST PUSH0 DUP1 REVERT JUMPDEST PUSH2 0x68 PUSH1 0x4 DUP1 CALLDATASIZE SUB DUP2 ADD SWAP1 PUSH2 0x63 SWAP2 SWAP1 PUSH2 0x3CD JUMP JUMPDEST PUSH2 0xD4 JUMP JUMPDEST PUSH1 0x40 MLOAD PUSH2 0x75 SWAP2 SWAP1 PUSH2 0x474 JUMP JUMPDEST PUSH1 0x40 MLOAD DUP1 SWAP2 SUB SWAP1 RETURN JUMPDEST PUSH2 0x98 PUSH1 0x4 DUP1 CALLDATASIZE SUB DUP2 ADD SWAP1 PUSH2 0x93 SWAP2 SWAP1 PUSH2 0x4C7 JUMP JUMPDEST PUSH2 0xFD JUMP JUMPDEST STOP JUMPDEST PUSH2 0xB4 PUSH1 0x4 DUP1 CALLDATASIZE SUB DUP2 ADD SWAP1 PUSH2 0xAF SWAP2 SWAP1 PUSH2 0x3CD JUMP JUMPDEST PUSH2 0x1D5 JUMP JUMPDEST STOP JUMPDEST PUSH2 0xBE PUSH2 0x1E8 JUMP JUMPDEST PUSH1 0x40 MLOAD PUSH2 0xCB SWAP2 SWAP1 PUSH2 0x474 JUMP JUMPDEST PUSH1 0x40 MLOAD DUP1 SWAP2 SUB SWAP1 RETURN JUMPDEST PUSH1 0x60 DUP2 PUSH1 0x40 MLOAD PUSH1 0x20 ADD PUSH2 0xE7 SWAP2 SWAP1 PUSH2 0x581 JUMP JUMPDEST PUSH1 0x40 MLOAD PUSH1 0x20 DUP2 DUP4 SUB SUB DUP2 MSTORE SWAP1 PUSH1 0x40 MSTORE SWAP1 POP SWAP2 SWAP1 POP JUMP JUMPDEST DUP2 PUSH1 0x4 SWAP1 DUP2 PUSH2 0x10C SWAP2 SWAP1 PUSH2 0x7A0 JUMP JUMPDEST POP PUSH0 PUSH1 0x40 MLOAD DUP1 PUSH1 0x60 ADD PUSH1 0x40 MSTORE DUP1 DUP5 DUP2 MSTORE PUSH1 0x20 ADD DUP4 DUP2 MSTORE PUSH1 0x20 ADD CALLER PUSH20 0xFFFFFFFFFFFFFFFFFFFFFFFFFFFFFFFFFFFFFFFF AND DUP2 MSTORE POP SWAP1 POP PUSH1 0x6 DUP2 SWAP1 DUP1 PUSH1 0x1 DUP2 SLOAD ADD DUP1 DUP3 SSTORE DUP1 SWAP2 POP POP PUSH1 0x1 SWAP1 SUB SWAP1 PUSH0 MSTORE PUSH1 0x20 PUSH0 KECCAK256 SWAP1 PUSH1 0x3 MUL ADD PUSH0 SWAP1 SWAP2 SWAP1 SWAP2 SWAP1 SWAP2 POP PUSH0 DUP3 ADD MLOAD DUP2 PUSH0 ADD SWAP1 DUP2 PUSH2 0x17D SWAP2 SWAP1 PUSH2 0x7A0 JUMP JUMPDEST POP PUSH1 0x20 DUP3 ADD MLOAD DUP2 PUSH1 0x1 ADD SSTORE PUSH1 0x40 DUP3 ADD MLOAD DUP2 PUSH1 0x2 ADD PUSH0 PUSH2 0x100 EXP DUP2 SLOAD DUP2 PUSH20 0xFFFFFFFFFFFFFFFFFFFFFFFFFFFFFFFFFFFFFFFF MUL NOT AND SWAP1 DUP4 PUSH20 0xFFFFFFFFFFFFFFFFFFFFFFFFFFFFFFFFFFFFFFFF AND MUL OR SWAP1 SSTORE POP POP POP POP POP POP JUMP JUMPDEST DUP1 PUSH1 0x4 SWAP1 DUP2 PUSH2 0x1E4 SWAP2 SWAP1 PUSH2 0x7A0 JUMP JUMPDEST POP POP JUMP JUMPDEST PUSH1 0x60 PUSH2 0x27B PUSH1 0x4 DUP1 SLOAD PUSH2 0x1FA SWAP1 PUSH2 0x5D3 JUMP JUMPDEST DUP1 PUSH1 0x1F ADD PUSH1 0x20 DUP1 SWAP2 DIV MUL PUSH1 0x20 ADD PUSH1 0x40 MLOAD SWAP1 DUP2 ADD PUSH1 0x40 MSTORE DUP1 SWAP3 SWAP2 SWAP1 DUP2 DUP2 MSTORE PUSH1 0x20 ADD DUP3 DUP1 SLOAD PUSH2 0x226 SWAP1 PUSH2 0x5D3 JUMP JUMPDEST DUP1 ISZERO PUSH2 0x271 JUMPI DUP1 PUSH1 0x1F LT PUSH2 0x248 JUMPI PUSH2 0x100 DUP1 DUP4 SLOAD DIV MUL DUP4 MSTORE SWAP2 PUSH1 0x20 ADD SWAP2 PUSH2 0x271 JUMP JUMPDEST DUP3 ADD SWAP2 SWAP1 PUSH0 MSTORE PUSH1 0x20 PUSH0 KECCAK256 SWAP1 JUMPDEST DUP2 SLOAD DUP2 MSTORE SWAP1 PUSH1 0x1 ADD SWAP1 PUSH1 0x20 ADD DUP1 DUP4 GT PUSH2 0x254 JUMPI DUP3 SWAP1 SUB PUSH1 0x1F AND DUP3 ADD SWAP2 JUMPDEST POP POP POP POP POP PUSH2 0xD4 JUMP JUMPDEST SWAP1 POP SWAP1 JUMP JUMPDEST PUSH0 PUSH1 0x40 MLOAD SWAP1 POP SWAP1 JUMP JUMPDEST PUSH0 DUP1 REVERT JUMPDEST PUSH0 DUP1 REVERT JUMPDEST PUSH0 DUP1 REVERT JUMPDEST PUSH0 DUP1 REVERT JUMPDEST PUSH0 PUSH1 0x1F NOT PUSH1 0x1F DUP4 ADD AND SWAP1 POP SWAP2 SWAP1 POP JUMP JUMPDEST PUSH32 0x4E487B7100000000000000000000000000000000000000000000000000000000 PUSH0 MSTORE PUSH1 0x41 PUSH1 0x4 MSTORE PUSH1 0x24 PUSH0 REVERT JUMPDEST PUSH2 0x2DF DUP3 PUSH2 0x299 JUMP JUMPDEST DUP2 ADD DUP2 DUP2 LT PUSH8 0xFFFFFFFFFFFFFFFF DUP3 GT OR ISZERO PUSH2 0x2FE JUMPI PUSH2 0x2FD PUSH2 0x2A9 JUMP JUMPDEST JUMPDEST DUP1 PUSH1 0x40 MSTORE POP POP POP JUMP JUMPDEST PUSH0 PUSH2 0x310 PUSH2 0x280 JUMP JUMPDEST SWAP1 POP PUSH2 0x31C DUP3 DUP3 PUSH2 0x2D6 JUMP JUMPDEST SWAP2 SWAP1 POP JUMP JUMPDEST PUSH0 PUSH8 0xFFFFFFFFFFFFFFFF DUP3 GT ISZERO PUSH2 0x33B JUMPI PUSH2 0x33A PUSH2 0x2A9 JUMP JUMPDEST JUMPDEST PUSH2 0x344 DUP3 PUSH2 0x299 JUMP JUMPDEST SWAP1 POP PUSH1 0x20 DUP2 ADD SWAP1 POP SWAP2 SWAP1 POP JUMP JUMPDEST DUP3 DUP2 DUP4 CALLDATACOPY PUSH0 DUP4 DUP4 ADD MSTORE POP POP POP JUMP JUMPDEST PUSH0 PUSH2 0x371 PUSH2 0x36C DUP5 PUSH2 0x321 JUMP JUMPDEST PUSH2 0x307 JUMP JUMPDEST SWAP1 POP DUP3 DUP2 MSTORE PUSH1 0x20 DUP2 ADD DUP5 DUP5 DUP5 ADD GT ISZERO PUSH2 0x38D JUMPI PUSH2 0x38C PUSH2 0x295 JUMP JUMPDEST JUMPDEST PUSH2 0x398 DUP5 DUP3 DUP6 PUSH2 0x351 JUMP JUMPDEST POP SWAP4 SWAP3 POP POP POP JUMP JUMPDEST PUSH0 DUP3 PUSH1 0x1F DUP4 ADD SLT PUSH2 0x3B4 JUMPI PUSH2 0x3B3 PUSH2 0x291 JUMP JUMPDEST JUMPDEST DUP2 CALLDATALOAD PUSH2 0x3C4 DUP5 DUP3 PUSH1 0x20 DUP7 ADD PUSH2 0x35F JUMP JUMPDEST SWAP2 POP POP SWAP3 SWAP2 POP POP JUMP JUMPDEST PUSH0 PUSH1 0x20 DUP3 DUP5 SUB SLT ISZERO PUSH2 0x3E2 JUMPI PUSH2 0x3E1 PUSH2 0x289 JUMP JUMPDEST JUMPDEST PUSH0 DUP3 ADD CALLDATALOAD PUSH8 0xFFFFFFFFFFFFFFFF DUP2 GT ISZERO PUSH2 0x3FF JUMPI PUSH2 0x3FE PUSH2 0x28D JUMP JUMPDEST JUMPDEST PUSH2 0x40B DUP5 DUP3 DUP6 ADD PUSH2 0x3A0 JUMP JUMPDEST SWAP2 POP POP SWAP3 SWAP2 POP POP JUMP JUMPDEST PUSH0 DUP2 MLOAD SWAP1 POP SWAP2 SWAP1 POP JUMP JUMPDEST PUSH0 DUP3 DUP3 MSTORE PUSH1 0x20 DUP3 ADD SWAP1 POP SWAP3 SWAP2 POP POP JUMP JUMPDEST DUP3 DUP2 DUP4 MCOPY PUSH0 DUP4 DUP4 ADD MSTORE POP POP POP JUMP JUMPDEST PUSH0 PUSH2 0x446 DUP3 PUSH2 0x414 JUMP JUMPDEST PUSH2 0x450 DUP2 DUP6 PUSH2 0x41E JUMP JUMPDEST SWAP4 POP PUSH2 0x460 DUP2 DUP6 PUSH1 0x20 DUP7 ADD PUSH2 0x42E JUMP JUMPDEST PUSH2 0x469 DUP2 PUSH2 0x299 JUMP JUMPDEST DUP5 ADD SWAP2 POP POP SWAP3 SWAP2 POP POP JUMP JUMPDEST PUSH0 PUSH1 0x20 DUP3 ADD SWAP1 POP DUP2 DUP2 SUB PUSH0 DUP4 ADD MSTORE PUSH2 0x48C DUP2 DUP5 PUSH2 0x43C JUMP JUMPDEST SWAP1 POP SWAP3 SWAP2 POP POP JUMP JUMPDEST PUSH0 DUP2 SWAP1 POP SWAP2 SWAP1 POP JUMP JUMPDEST PUSH2 0x4A6 DUP2 PUSH2 0x494 JUMP JUMPDEST DUP2 EQ PUSH2 0x4B0 JUMPI PUSH0 DUP1 REVERT JUMPDEST POP JUMP JUMPDEST PUSH0 DUP2 CALLDATALOAD SWAP1 POP PUSH2 0x4C1 DUP2 PUSH2 0x49D JUMP JUMPDEST SWAP3 SWAP2 POP POP JUMP JUMPDEST PUSH0 DUP1 PUSH1 0x40 DUP4 DUP6 SUB SLT ISZERO PUSH2 0x4DD JUMPI PUSH2 0x4DC PUSH2 0x289 JUMP JUMPDEST JUMPDEST PUSH0 DUP4 ADD CALLDATALOAD PUSH8 0xFFFFFFFFFFFFFFFF DUP2 GT ISZERO PUSH2 0x4FA JUMPI PUSH2 0x4F9 PUSH2 0x28D JUMP JUMPDEST JUMPDEST PUSH2 0x506 DUP6 DUP3 DUP7 ADD PUSH2 0x3A0 JUMP JUMPDEST SWAP3 POP POP PUSH1 0x20 PUSH2 0x517 DUP6 DUP3 DUP7 ADD PUSH2 0x4B3 JUMP JUMPDEST SWAP2 POP POP SWAP3 POP SWAP3 SWAP1 POP JUMP JUMPDEST PUSH0 DUP2 SWAP1 POP SWAP3 SWAP2 POP POP JUMP JUMPDEST PUSH0 PUSH2 0x535 DUP3 PUSH2 0x414 JUMP JUMPDEST PUSH2 0x53F DUP2 DUP6 PUSH2 0x521 JUMP JUMPDEST SWAP4 POP PUSH2 0x54F DUP2 DUP6 PUSH1 0x20 DUP7 ADD PUSH2 0x42E JUMP JUMPDEST DUP1 DUP5 ADD SWAP2 POP POP SWAP3 SWAP2 POP POP JUMP JUMPDEST PUSH32 0x20666F726D204672616E6B277320636F6E747261637400000000000000000000 DUP2 MSTORE POP JUMP JUMPDEST PUSH0 PUSH2 0x58C DUP3 DUP5 PUSH2 0x52B JUMP JUMPDEST SWAP2 POP PUSH2 0x597 DUP3 PUSH2 0x55B JUMP JUMPDEST PUSH1 0x16 DUP3 ADD SWAP2 POP DUP2 SWAP1 POP SWAP3 SWAP2 POP POP JUMP JUMPDEST PUSH32 0x4E487B7100000000000000000000000000000000000000000000000000000000 PUSH0 MSTORE PUSH1 0x22 PUSH1 0x4 MSTORE PUSH1 0x24 PUSH0 REVERT JUMPDEST PUSH0 PUSH1 0x2 DUP3 DIV SWAP1 POP PUSH1 0x1 DUP3 AND DUP1 PUSH2 0x5EA JUMPI PUSH1 0x7F DUP3 AND SWAP2 POP JUMPDEST PUSH1 0x20 DUP3 LT DUP2 SUB PUSH2 0x5FD JUMPI PUSH2 0x5FC PUSH2 0x5A6 JUMP JUMPDEST JUMPDEST POP SWAP2 SWAP1 POP JUMP JUMPDEST PUSH0 DUP2 SWAP1 POP DUP2 PUSH0 MSTORE PUSH1 0x20 PUSH0 KECCAK256 SWAP1 POP SWAP2 SWAP1 POP JUMP JUMPDEST PUSH0 PUSH1 0x20 PUSH1 0x1F DUP4 ADD DIV SWAP1 POP SWAP2 SWAP1 POP JUMP JUMPDEST PUSH0 DUP3 DUP3 SHL SWAP1 POP SWAP3 SWAP2 POP POP JUMP JUMPDEST PUSH0 PUSH1 0x8 DUP4 MUL PUSH2 0x65F PUSH32 0xFFFFFFFFFFFFFFFFFFFFFFFFFFFFFFFFFFFFFFFFFFFFFFFFFFFFFFFFFFFFFFFF DUP3 PUSH2 0x624 JUMP JUMPDEST PUSH2 0x669 DUP7 DUP4 PUSH2 0x624 JUMP JUMPDEST SWAP6 POP DUP1 NOT DUP5 AND SWAP4 POP DUP1 DUP7 AND DUP5 OR SWAP3 POP POP POP SWAP4 SWAP3 POP POP POP JUMP JUMPDEST PUSH0 DUP2 SWAP1 POP SWAP2 SWAP1 POP JUMP JUMPDEST PUSH0 PUSH2 0x6A4 PUSH2 0x69F PUSH2 0x69A DUP5 PUSH2 0x494 JUMP JUMPDEST PUSH2 0x681 JUMP JUMPDEST PUSH2 0x494 JUMP JUMPDEST SWAP1 POP SWAP2 SWAP1 POP JUMP JUMPDEST PUSH0 DUP2 SWAP1 POP SWAP2 SWAP1 POP JUMP JUMPDEST PUSH2 0x6BD DUP4 PUSH2 0x68A JUMP JUMPDEST PUSH2 0x6D1 PUSH2 0x6C9 DUP3 PUSH2 0x6AB JUMP JUMPDEST DUP5 DUP5 SLOAD PUSH2 0x630 JUMP JUMPDEST DUP3 SSTORE POP POP POP POP JUMP JUMPDEST PUSH0 SWAP1 JUMP JUMPDEST PUSH2 0x6E5 PUSH2 0x6D9 JUMP JUMPDEST PUSH2 0x6F0 DUP2 DUP5 DUP5 PUSH2 0x6B4 JUMP JUMPDEST POP POP POP JUMP JUMPDEST JUMPDEST DUP2 DUP2 LT ISZERO PUSH2 0x713 JUMPI PUSH2 0x708 PUSH0 DUP3 PUSH2 0x6DD JUMP JUMPDEST PUSH1 0x1 DUP2 ADD SWAP1 POP PUSH2 0x6F6 JUMP JUMPDEST POP POP JUMP JUMPDEST PUSH1 0x1F DUP3 GT ISZERO PUSH2 0x758 JUMPI PUSH2 0x729 DUP2 PUSH2 0x603 JUMP JUMPDEST PUSH2 0x732 DUP5 PUSH2 0x615 JUMP JUMPDEST DUP2 ADD PUSH1 0x20 DUP6 LT ISZERO PUSH2 0x741 JUMPI DUP2 SWAP1 POP JUMPDEST PUSH2 0x755 PUSH2 0x74D DUP6 PUSH2 0x615 JUMP JUMPDEST DUP4 ADD DUP3 PUSH2 0x6F5 JUMP JUMPDEST POP POP JUMPDEST POP POP POP JUMP JUMPDEST PUSH0 DUP3 DUP3 SHR SWAP1 POP SWAP3 SWAP2 POP POP JUMP JUMPDEST PUSH0 PUSH2 0x778 PUSH0 NOT DUP5 PUSH1 0x8 MUL PUSH2 0x75D JUMP JUMPDEST NOT DUP1 DUP4 AND SWAP2 POP POP SWAP3 SWAP2 POP POP JUMP JUMPDEST PUSH0 PUSH2 0x790 DUP4 DUP4 PUSH2 0x769 JUMP JUMPDEST SWAP2 POP DUP3 PUSH1 0x2 MUL DUP3 OR SWAP1 POP SWAP3 SWAP2 POP POP JUMP JUMPDEST PUSH2 0x7A9 DUP3 PUSH2 0x414 JUMP JUMPDEST PUSH8 0xFFFFFFFFFFFFFFFF DUP2 GT ISZERO PUSH2 0x7C2 JUMPI PUSH2 0x7C1 PUSH2 0x2A9 JUMP JUMPDEST JUMPDEST PUSH2 0x7CC DUP3 SLOAD PUSH2 0x5D3 JUMP JUMPDEST PUSH2 0x7D7 DUP3 DUP3 DUP6 PUSH2 0x717 JUMP JUMPDEST PUSH0 PUSH1 0x20 SWAP1 POP PUSH1 0x1F DUP4 GT PUSH1 0x1 DUP2 EQ PUSH2 0x808 JUMPI PUSH0 DUP5 ISZERO PUSH2 0x7F6 JUMPI DUP3 DUP8 ADD MLOAD SWAP1 POP JUMPDEST PUSH2 0x800 DUP6 DUP3 PUSH2 0x785 JUMP JUMPDEST DUP7 SSTORE POP PUSH2 0x867 JUMP JUMPDEST PUSH1 0x1F NOT DUP5 AND PUSH2 0x816 DUP7 PUSH2 0x603 JUMP JUMPDEST PUSH0 JUMPDEST DUP3 DUP2 LT ISZERO PUSH2 0x83D JUMPI DUP5 DUP10 ADD MLOAD DUP3 SSTORE PUSH1 0x1 DUP3 ADD SWAP2 POP PUSH1 0x20 DUP6 ADD SWAP5 POP PUSH1 0x20 DUP2 ADD SWAP1 POP PUSH2 0x818 JUMP JUMPDEST DUP7 DUP4 LT ISZERO PUSH2 0x85A JUMPI DUP5 DUP10 ADD MLOAD PUSH2 0x856 PUSH1 0x1F DUP10 AND DUP3 PUSH2 0x769 JUMP JUMPDEST DUP4 SSTORE POP JUMPDEST PUSH1 0x1 PUSH1 0x2 DUP9 MUL ADD DUP9 SSTORE POP POP POP JUMPDEST POP POP POP POP POP POP JUMP INVALID LOG2 PUSH5 0x6970667358 0x22 SLT KECCAK256 0xAB DUP1 0x2C 0xA5 BYTE PUSH16 0x451EE0EE3F368C62FC1CDC2BFD259E40 MSTORE PUSH29 0x93E753585BD9398164736F6C634300081A003300000000000000000000 "
				},
				"gasEstimates": {
					"creation": {
						"codeDepositCost": "442600",
						"executionCost": "infinite",
						"totalCost": "infinite"
					},
					"external": {
						"addInfo(string)": "infinite",
						"sayHello()": "infinite",
						"setHelloWorld(string)": "infinite",
						"setInfo(string,uint256)": "infinite"
					}
				},
				"methodIdentifiers": {
					"addInfo(string)": "0bf803e4",
					"sayHello()": "ef5fb05b",
					"setHelloWorld(string)": "90ffded8",
					"setInfo(string,uint256)": "8262963b"
				}
			},
			"storageLayout": {
				"storage": [
					{
						"astId": 4,
						"contract": "test.sol:HelloWorld",
						"label": "isTrue",
						"offset": 0,
						"slot": "0",
						"type": "t_bool"
					},
					{
						"astId": 7,
						"contract": "test.sol:HelloWorld",
						"label": "isFalse",
						"offset": 1,
						"slot": "0",
						"type": "t_bool"
					},
					{
						"astId": 10,
						"contract": "test.sol:HelloWorld",
						"label": "num8",
						"offset": 0,
						"slot": "1",
						"type": "t_uint256"
					},
					{
						"astId": 14,
						"contract": "test.sol:HelloWorld",
						"label": "negative",
						"offset": 0,
						"slot": "2",
						"type": "t_int256"
					},
					{
						"astId": 17,
						"contract": "test.sol:HelloWorld",
						"label": "byteStr",
						"offset": 0,
						"slot": "3",
						"type": "t_bytes32"
					},
					{
						"astId": 20,
						"contract": "test.sol:HelloWorld",
						"label": "str",
						"offset": 0,
						"slot": "4",
						"type": "t_string_storage"
					},
					{
						"astId": 23,
						"contract": "test.sol:HelloWorld",
						"label": "addr",
						"offset": 0,
						"slot": "5",
						"type": "t_address"
					},
					{
						"astId": 69,
						"contract": "test.sol:HelloWorld",
						"label": "infos",
						"offset": 0,
						"slot": "6",
						"type": "t_array(t_struct(Info)65_storage)dyn_storage"
					}
				],
				"types": {
					"t_address": {
						"encoding": "inplace",
						"label": "address",
						"numberOfBytes": "20"
					},
					"t_array(t_struct(Info)65_storage)dyn_storage": {
						"base": "t_struct(Info)65_storage",
						"encoding": "dynamic_array",
						"label": "struct HelloWorld.Info[]",
						"numberOfBytes": "32"
					},
					"t_bool": {
						"encoding": "inplace",
						"label": "bool",
						"numberOfBytes": "1"
					},
					"t_bytes32": {
						"encoding": "inplace",
						"label": "bytes32",
						"numberOfBytes": "32"
					},
					"t_int256": {
						"encoding": "inplace",
						"label": "int256",
						"numberOfBytes": "32"
					},
					"t_string_storage": {
						"encoding": "bytes",
						"label": "string",
						"numberOfBytes": "32"
					},
					"t_struct(Info)65_storage": {
						"encoding": "inplace",
						"label": "struct HelloWorld.Info",
						"members": [
							{
								"astId": 60,
								"contract": "test.sol:HelloWorld",
								"label": "phrase",
								"offset": 0,
								"slot": "0",
								"type": "t_string_storage"
							},
							{
								"astId": 62,
								"contract": "test.sol:HelloWorld",
								"label": "id",
								"offset": 0,
								"slot": "1",
								"type": "t_uint256"
							},
							{
								"astId": 64,
								"contract": "test.sol:HelloWorld",
								"label": "addr",
								"offset": 0,
								"slot": "2",
								"type": "t_address"
							}
						],
						"numberOfBytes": "96"
					},
					"t_uint256": {
						"encoding": "inplace",
						"label": "uint256",
						"numberOfBytes": "32"
					}
				}
			},
			"userdoc": {
				"kind": "user",
				"methods": {},
				"version": 1
			}
		}
	}
}