{
	"data": {
		"bytecode": {
			"linkReferences": {},
			"object": "608060405268056bc75e2d6310000060055534801561001c575f80fd5b506040516110a53803806110a5833981810160405281019061003e919061011d565b73694aa1769357215de4fac081bf1f309adc32530660015f6101000a81548173ffffffffffffffffffffffffffffffffffffffff021916908373ffffffffffffffffffffffffffffffffffffffff1602179055503360025f6101000a81548173ffffffffffffffffffffffffffffffffffffffff021916908373ffffffffffffffffffffffffffffffffffffffff160217905550426003819055508060048190555050610148565b5f80fd5b5f819050919050565b6100fc816100ea565b8114610106575f80fd5b50565b5f81519050610117816100f3565b92915050565b5f60208284031215610132576101316100e6565b5b5f61013f84828501610109565b91505092915050565b610f50806101555f395ff3fe60806040526004361061006f575f3560e01c80638da5cb5b1161004d5780638da5cb5b146100ed5780638edd6eb614610117578063b60d42881461012d578063bea4dfb5146101375761006f565b806326d27c5c146100735780634407e1e81461009b578063590e1ae3146100d7575b5f80fd5b34801561007e575f80fd5b50610099600480360381019061009491906108a6565b610161565b005b3480156100a6575f80fd5b506100c160048036038101906100bc91906108a6565b610233565b6040516100ce91906108e9565b60405180910390f35b3480156100e2575f80fd5b506100eb610247565b005b3480156100f8575f80fd5b50610101610494565b60405161010e9190610911565b60405180910390f35b348015610122575f80fd5b5061012b6104b9565b005b61013561069b565b005b348015610142575f80fd5b5061014b61077c565b6040516101589190610942565b60405180910390f35b60025f9054906101000a900473ffffffffffffffffffffffffffffffffffffffff1673ffffffffffffffffffffffffffffffffffffffff163373ffffffffffffffffffffffffffffffffffffffff16146101f0576040517f08c379a00000000000000000000000000000000000000000000000000000000081526004016101e7906109db565b60405180910390fd5b8060025f6101000a81548173ffffffffffffffffffffffffffffffffffffffff021916908373ffffffffffffffffffffffffffffffffffffffff16021790555050565b5f602052805f5260405f205f915090505481565b6004546003546102579190610a26565b421015610299576040517f08c379a000000000000000000000000000000000000000000000000000000000815260040161029090610aa3565b60405180910390fd5b683635c9adc5dea000006102ac47610819565b106102ec576040517f08c379a00000000000000000000000000000000000000000000000000000000081526004016102e390610b0b565b60405180910390fd5b5f805f3373ffffffffffffffffffffffffffffffffffffffff1673ffffffffffffffffffffffffffffffffffffffff1681526020019081526020015f20540361036a576040517f08c379a000000000000000000000000000000000000000000000000000000000815260040161036190610b73565b60405180910390fd5b5f3373ffffffffffffffffffffffffffffffffffffffff165f803373ffffffffffffffffffffffffffffffffffffffff1673ffffffffffffffffffffffffffffffffffffffff1681526020019081526020015f20546040516103cb90610bbe565b5f6040518083038185875af1925050503d805f8114610405576040519150601f19603f3d011682016040523d82523d5f602084013e61040a565b606091505b50508091505080610450576040517f08c379a000000000000000000000000000000000000000000000000000000000815260040161044790610c1c565b60405180910390fd5b5f805f3373ffffffffffffffffffffffffffffffffffffffff1673ffffffffffffffffffffffffffffffffffffffff1681526020019081526020015f208190555050565b60025f9054906101000a900473ffffffffffffffffffffffffffffffffffffffff1681565b6004546003546104c99190610a26565b42101561050b576040517f08c379a000000000000000000000000000000000000000000000000000000000815260040161050290610aa3565b60405180910390fd5b60025f9054906101000a900473ffffffffffffffffffffffffffffffffffffffff1673ffffffffffffffffffffffffffffffffffffffff163373ffffffffffffffffffffffffffffffffffffffff161461059a576040517f08c379a0000000000000000000000000000000000000000000000000000000008152600401610591906109db565b60405180910390fd5b683635c9adc5dea000006105ad47610819565b10156105ee576040517f08c379a00000000000000000000000000000000000000000000000000000000081526004016105e590610c84565b60405180910390fd5b5f3373ffffffffffffffffffffffffffffffffffffffff164760405161061390610bbe565b5f6040518083038185875af1925050503d805f811461064d576040519150601f19603f3d011682016040523d82523d5f602084013e610652565b606091505b50508091505080610698576040517f08c379a000000000000000000000000000000000000000000000000000000000815260040161068f90610c1c565b60405180910390fd5b50565b6005546106a734610819565b10156106e8576040517f08c379a00000000000000000000000000000000000000000000000000000000081526004016106df90610cec565b60405180910390fd5b6004546003546106f89190610a26565b4210610739576040517f08c379a000000000000000000000000000000000000000000000000000000000815260040161073090610d54565b60405180910390fd5b345f803373ffffffffffffffffffffffffffffffffffffffff1673ffffffffffffffffffffffffffffffffffffffff1681526020019081526020015f2081905550565b5f8060015f9054906101000a900473ffffffffffffffffffffffffffffffffffffffff1673ffffffffffffffffffffffffffffffffffffffff1663feaf968c6040518163ffffffff1660e01b815260040160a060405180830381865afa1580156107e8573d5f803e3d5ffd5b505050506040513d601f19601f8201168201806040525081019061080c9190610e05565b5050509150508091505090565b5f8061082361077c565b90506305f5e100816108359190610ea9565b836108409190610ed9565b915050919050565b5f80fd5b5f73ffffffffffffffffffffffffffffffffffffffff82169050919050565b5f6108758261084c565b9050919050565b6108858161086b565b811461088f575f80fd5b50565b5f813590506108a08161087c565b92915050565b5f602082840312156108bb576108ba610848565b5b5f6108c884828501610892565b91505092915050565b5f819050919050565b6108e3816108d1565b82525050565b5f6020820190506108fc5f8301846108da565b92915050565b61090b8161086b565b82525050565b5f6020820190506109245f830184610902565b92915050565b5f819050919050565b61093c8161092a565b82525050565b5f6020820190506109555f830184610933565b92915050565b5f82825260208201905092915050565b7f746869732066756e6374696f6e2063616e206f6e6c792062652063616c6c65645f8201527f206279206f776e65720000000000000000000000000000000000000000000000602082015250565b5f6109c560298361095b565b91506109d08261096b565b604082019050919050565b5f6020820190508181035f8301526109f2816109b9565b9050919050565b7f4e487b71000000000000000000000000000000000000000000000000000000005f52601160045260245ffd5b5f610a30826108d1565b9150610a3b836108d1565b9250828201905080821115610a5357610a526109f9565b5b92915050565b7f77696e646f77206973206e6f7420636c6f7365640000000000000000000000005f82015250565b5f610a8d60148361095b565b9150610a9882610a59565b602082019050919050565b5f6020820190508181035f830152610aba81610a81565b9050919050565b7f54617267657420697320726561636865640000000000000000000000000000005f82015250565b5f610af560118361095b565b9150610b0082610ac1565b602082019050919050565b5f6020820190508181035f830152610b2281610ae9565b9050919050565b7f7468657265206973206e6f2066756e6420666f7220796f7500000000000000005f82015250565b5f610b5d60188361095b565b9150610b6882610b29565b602082019050919050565b5f6020820190508181035f830152610b8a81610b51565b9050919050565b5f81905092915050565b50565b5f610ba95f83610b91565b9150610bb482610b9b565b5f82019050919050565b5f610bc882610b9e565b9150819050919050565b7f7472616e78666572207478206661696c656400000000000000000000000000005f82015250565b5f610c0660128361095b565b9150610c1182610bd2565b602082019050919050565b5f6020820190508181035f830152610c3381610bfa565b9050919050565b7f546172676574206973206e6f74207265616368656400000000000000000000005f82015250565b5f610c6e60158361095b565b9150610c7982610c3a565b602082019050919050565b5f6020820190508181035f830152610c9b81610c62565b9050919050565b7f53656e64206d6f726520455448000000000000000000000000000000000000005f82015250565b5f610cd6600d8361095b565b9150610ce182610ca2565b602082019050919050565b5f6020820190508181035f830152610d0381610cca565b9050919050565b7f77696e646f7720697320636c6f736564000000000000000000000000000000005f82015250565b5f610d3e60108361095b565b9150610d4982610d0a565b602082019050919050565b5f6020820190508181035f830152610d6b81610d32565b9050919050565b5f69ffffffffffffffffffff82169050919050565b610d9081610d72565b8114610d9a575f80fd5b50565b5f81519050610dab81610d87565b92915050565b610dba8161092a565b8114610dc4575f80fd5b50565b5f81519050610dd581610db1565b92915050565b610de4816108d1565b8114610dee575f80fd5b50565b5f81519050610dff81610ddb565b92915050565b5f805f805f60a08688031215610e1e57610e1d610848565b5b5f610e2b88828901610d9d565b9550506020610e3c88828901610dc7565b9450506040610e4d88828901610df1565b9350506060610e5e88828901610df1565b9250506080610e6f88828901610d9d565b9150509295509295909350565b7f4e487b71000000000000000000000000000000000000000000000000000000005f52601260045260245ffd5b5f610eb3826108d1565b9150610ebe836108d1565b925082610ece57610ecd610e7c565b5b828204905092915050565b5f610ee3826108d1565b9150610eee836108d1565b9250828202610efc816108d1565b91508282048414831517610f1357610f126109f9565b5b509291505056fea2646970667358221220e4aa1e4b7a8d1301f4f8543da45f8615824d152a6fcc96989725cb45c08887e764736f6c634300081a0033",
			"opcodes": "PUSH1 0x80 PUSH1 0x40 MSTORE PUSH9 0x56BC75E2D63100000 PUSH1 0x5 SSTORE CALLVALUE DUP1 ISZERO PUSH2 0x1C JUMPI PUSH0 DUP1 REVERT JUMPDEST POP PUSH1 0x40 MLOAD PUSH2 0x10A5 CODESIZE SUB DUP1 PUSH2 0x10A5 DUP4 CODECOPY DUP2 DUP2 ADD PUSH1 0x40 MSTORE DUP2 ADD SWAP1 PUSH2 0x3E SWAP2 SWAP1 PUSH2 0x11D JUMP JUMPDEST PUSH20 0x694AA1769357215DE4FAC081BF1F309ADC325306 PUSH1 0x1 PUSH0 PUSH2 0x100 EXP DUP2 SLOAD DUP2 PUSH20 0xFFFFFFFFFFFFFFFFFFFFFFFFFFFFFFFFFFFFFFFF MUL NOT AND SWAP1 DUP4 PUSH20 0xFFFFFFFFFFFFFFFFFFFFFFFFFFFFFFFFFFFFFFFF AND MUL OR SWAP1 SSTORE POP CALLER PUSH1 0x2 PUSH0 PUSH2 0x100 EXP DUP2 SLOAD DUP2 PUSH20 0xFFFFFFFFFFFFFFFFFFFFFFFFFFFFFFFFFFFFFFFF MUL NOT AND SWAP1 DUP4 PUSH20 0xFFFFFFFFFFFFFFFFFFFFFFFFFFFFFFFFFFFFFFFF AND MUL OR SWAP1 SSTORE POP TIMESTAMP PUSH1 0x3 DUP2 SWAP1 SSTORE POP DUP1 PUSH1 0x4 DUP2 SWAP1 SSTORE POP POP PUSH2 0x148 JUMP JUMPDEST PUSH0 DUP1 REVERT JUMPDEST PUSH0 DUP2 SWAP1 POP SWAP2 SWAP1 POP JUMP JUMPDEST PUSH2 0xFC DUP2 PUSH2 0xEA JUMP JUMPDEST DUP2 EQ PUSH2 0x106 JUMPI PUSH0 DUP1 REVERT JUMPDEST POP JUMP JUMPDEST PUSH0 DUP2 MLOAD SWAP1 POP PUSH2 0x117 DUP2 PUSH2 0xF3 JUMP JUMPDEST SWAP3 SWAP2 POP POP JUMP JUMPDEST PUSH0 PUSH1 0x20 DUP3 DUP5 SUB SLT ISZERO PUSH2 0x132 JUMPI PUSH2 0x131 PUSH2 0xE6 JUMP JUMPDEST JUMPDEST PUSH0 PUSH2 0x13F DUP5 DUP3 DUP6 ADD PUSH2 0x109 JUMP JUMPDEST SWAP2 POP POP SWAP3 SWAP2 POP POP JUMP JUMPDEST PUSH2 0xF50 DUP1 PUSH2 0x155 PUSH0 CODECOPY PUSH0 RETURN INVALID PUSH1 0x80 PUSH1 0x40 MSTORE PUSH1 0x4 CALLDATASIZE LT PUSH2 0x6F JUMPI PUSH0 CALLDATALOAD PUSH1 0xE0 SHR DUP1 PUSH4 0x8DA5CB5B GT PUSH2 0x4D JUMPI DUP1 PUSH4 0x8DA5CB5B EQ PUSH2 0xED JUMPI DUP1 PUSH4 0x8EDD6EB6 EQ PUSH2 0x117 JUMPI DUP1 PUSH4 0xB60D4288 EQ PUSH2 0x12D JUMPI DUP1 PUSH4 0xBEA4DFB5 EQ PUSH2 0x137 JUMPI PUSH2 0x6F JUMP JUMPDEST DUP1 PUSH4 0x26D27C5C EQ PUSH2 0x73 JUMPI DUP1 PUSH4 0x4407E1E8 EQ PUSH2 0x9B JUMPI DUP1 PUSH4 0x590E1AE3 EQ PUSH2 0xD7 JUMPI JUMPDEST PUSH0 DUP1 REVERT JUMPDEST CALLVALUE DUP1 ISZERO PUSH2 0x7E JUMPI PUSH0 DUP1 REVERT JUMPDEST POP PUSH2 0x99 PUSH1 0x4 DUP1 CALLDATASIZE SUB DUP2 ADD SWAP1 PUSH2 0x94 SWAP2 SWAP1 PUSH2 0x8A6 JUMP JUMPDEST PUSH2 0x161 JUMP JUMPDEST STOP JUMPDEST CALLVALUE DUP1 ISZERO PUSH2 0xA6 JUMPI PUSH0 DUP1 REVERT JUMPDEST POP PUSH2 0xC1 PUSH1 0x4 DUP1 CALLDATASIZE SUB DUP2 ADD SWAP1 PUSH2 0xBC SWAP2 SWAP1 PUSH2 0x8A6 JUMP JUMPDEST PUSH2 0x233 JUMP JUMPDEST PUSH1 0x40 MLOAD PUSH2 0xCE SWAP2 SWAP1 PUSH2 0x8E9 JUMP JUMPDEST PUSH1 0x40 MLOAD DUP1 SWAP2 SUB SWAP1 RETURN JUMPDEST CALLVALUE DUP1 ISZERO PUSH2 0xE2 JUMPI PUSH0 DUP1 REVERT JUMPDEST POP PUSH2 0xEB PUSH2 0x247 JUMP JUMPDEST STOP JUMPDEST CALLVALUE DUP1 ISZERO PUSH2 0xF8 JUMPI PUSH0 DUP1 REVERT JUMPDEST POP PUSH2 0x101 PUSH2 0x494 JUMP JUMPDEST PUSH1 0x40 MLOAD PUSH2 0x10E SWAP2 SWAP1 PUSH2 0x911 JUMP JUMPDEST PUSH1 0x40 MLOAD DUP1 SWAP2 SUB SWAP1 RETURN JUMPDEST CALLVALUE DUP1 ISZERO PUSH2 0x122 JUMPI PUSH0 DUP1 REVERT JUMPDEST POP PUSH2 0x12B PUSH2 0x4B9 JUMP JUMPDEST STOP JUMPDEST PUSH2 0x135 PUSH2 0x69B JUMP JUMPDEST STOP JUMPDEST CALLVALUE DUP1 ISZERO PUSH2 0x142 JUMPI PUSH0 DUP1 REVERT JUMPDEST POP PUSH2 0x14B PUSH2 0x77C JUMP JUMPDEST PUSH1 0x40 MLOAD PUSH2 0x158 SWAP2 SWAP1 PUSH2 0x942 JUMP JUMPDEST PUSH1 0x40 MLOAD DUP1 SWAP2 SUB SWAP1 RETURN JUMPDEST PUSH1 0x2 PUSH0 SWAP1 SLOAD SWAP1 PUSH2 0x100 EXP SWAP1 DIV PUSH20 0xFFFFFFFFFFFFFFFFFFFFFFFFFFFFFFFFFFFFFFFF AND PUSH20 0xFFFFFFFFFFFFFFFFFFFFFFFFFFFFFFFFFFFFFFFF AND CALLER PUSH20 0xFFFFFFFFFFFFFFFFFFFFFFFFFFFFFFFFFFFFFFFF AND EQ PUSH2 0x1F0 JUMPI PUSH1 0x40 MLOAD PUSH32 0x8C379A000000000000000000000000000000000000000000000000000000000 DUP2 MSTORE PUSH1 0x4 ADD PUSH2 0x1E7 SWAP1 PUSH2 0x9DB JUMP JUMPDEST PUSH1 0x40 MLOAD DUP1 SWAP2 SUB SWAP1 REVERT JUMPDEST DUP1 PUSH1 0x2 PUSH0 PUSH2 0x100 EXP DUP2 SLOAD DUP2 PUSH20 0xFFFFFFFFFFFFFFFFFFFFFFFFFFFFFFFFFFFFFFFF MUL NOT AND SWAP1 DUP4 PUSH20 0xFFFFFFFFFFFFFFFFFFFFFFFFFFFFFFFFFFFFFFFF AND MUL OR SWAP1 SSTORE POP POP JUMP JUMPDEST PUSH0 PUSH1 0x20 MSTORE DUP1 PUSH0 MSTORE PUSH1 0x40 PUSH0 KECCAK256 PUSH0 SWAP2 POP SWAP1 POP SLOAD DUP2 JUMP JUMPDEST PUSH1 0x4 SLOAD PUSH1 0x3 SLOAD PUSH2 0x257 SWAP2 SWAP1 PUSH2 0xA26 JUMP JUMPDEST TIMESTAMP LT ISZERO PUSH2 0x299 JUMPI PUSH1 0x40 MLOAD PUSH32 0x8C379A000000000000000000000000000000000000000000000000000000000 DUP2 MSTORE PUSH1 0x4 ADD PUSH2 0x290 SWAP1 PUSH2 0xAA3 JUMP JUMPDEST PUSH1 0x40 MLOAD DUP1 SWAP2 SUB SWAP1 REVERT JUMPDEST PUSH9 0x3635C9ADC5DEA00000 PUSH2 0x2AC SELFBALANCE PUSH2 0x819 JUMP JUMPDEST LT PUSH2 0x2EC JUMPI PUSH1 0x40 MLOAD PUSH32 0x8C379A000000000000000000000000000000000000000000000000000000000 DUP2 MSTORE PUSH1 0x4 ADD PUSH2 0x2E3 SWAP1 PUSH2 0xB0B JUMP JUMPDEST PUSH1 0x40 MLOAD DUP1 SWAP2 SUB SWAP1 REVERT JUMPDEST PUSH0 DUP1 PUSH0 CALLER PUSH20 0xFFFFFFFFFFFFFFFFFFFFFFFFFFFFFFFFFFFFFFFF AND PUSH20 0xFFFFFFFFFFFFFFFFFFFFFFFFFFFFFFFFFFFFFFFF AND DUP2 MSTORE PUSH1 0x20 ADD SWAP1 DUP2 MSTORE PUSH1 0x20 ADD PUSH0 KECCAK256 SLOAD SUB PUSH2 0x36A JUMPI PUSH1 0x40 MLOAD PUSH32 0x8C379A000000000000000000000000000000000000000000000000000000000 DUP2 MSTORE PUSH1 0x4 ADD PUSH2 0x361 SWAP1 PUSH2 0xB73 JUMP JUMPDEST PUSH1 0x40 MLOAD DUP1 SWAP2 SUB SWAP1 REVERT JUMPDEST PUSH0 CALLER PUSH20 0xFFFFFFFFFFFFFFFFFFFFFFFFFFFFFFFFFFFFFFFF AND PUSH0 DUP1 CALLER PUSH20 0xFFFFFFFFFFFFFFFFFFFFFFFFFFFFFFFFFFFFFFFF AND PUSH20 0xFFFFFFFFFFFFFFFFFFFFFFFFFFFFFFFFFFFFFFFF AND DUP2 MSTORE PUSH1 0x20 ADD SWAP1 DUP2 MSTORE PUSH1 0x20 ADD PUSH0 KECCAK256 SLOAD PUSH1 0x40 MLOAD PUSH2 0x3CB SWAP1 PUSH2 0xBBE JUMP JUMPDEST PUSH0 PUSH1 0x40 MLOAD DUP1 DUP4 SUB DUP2 DUP6 DUP8 GAS CALL SWAP3 POP POP POP RETURNDATASIZE DUP1 PUSH0 DUP2 EQ PUSH2 0x405 JUMPI PUSH1 0x40 MLOAD SWAP2 POP PUSH1 0x1F NOT PUSH1 0x3F RETURNDATASIZE ADD AND DUP3 ADD PUSH1 0x40 MSTORE RETURNDATASIZE DUP3 MSTORE RETURNDATASIZE PUSH0 PUSH1 0x20 DUP5 ADD RETURNDATACOPY PUSH2 0x40A JUMP JUMPDEST PUSH1 0x60 SWAP2 POP JUMPDEST POP POP DUP1 SWAP2 POP POP DUP1 PUSH2 0x450 JUMPI PUSH1 0x40 MLOAD PUSH32 0x8C379A000000000000000000000000000000000000000000000000000000000 DUP2 MSTORE PUSH1 0x4 ADD PUSH2 0x447 SWAP1 PUSH2 0xC1C JUMP JUMPDEST PUSH1 0x40 MLOAD DUP1 SWAP2 SUB SWAP1 REVERT JUMPDEST PUSH0 DUP1 PUSH0 CALLER PUSH20 0xFFFFFFFFFFFFFFFFFFFFFFFFFFFFFFFFFFFFFFFF AND PUSH20 0xFFFFFFFFFFFFFFFFFFFFFFFFFFFFFFFFFFFFFFFF AND DUP2 MSTORE PUSH1 0x20 ADD SWAP1 DUP2 MSTORE PUSH1 0x20 ADD PUSH0 KECCAK256 DUP2 SWAP1 SSTORE POP POP JUMP JUMPDEST PUSH1 0x2 PUSH0 SWAP1 SLOAD SWAP1 PUSH2 0x100 EXP SWAP1 DIV PUSH20 0xFFFFFFFFFFFFFFFFFFFFFFFFFFFFFFFFFFFFFFFF AND DUP2 JUMP JUMPDEST PUSH1 0x4 SLOAD PUSH1 0x3 SLOAD PUSH2 0x4C9 SWAP2 SWAP1 PUSH2 0xA26 JUMP JUMPDEST TIMESTAMP LT ISZERO PUSH2 0x50B JUMPI PUSH1 0x40 MLOAD PUSH32 0x8C379A000000000000000000000000000000000000000000000000000000000 DUP2 MSTORE PUSH1 0x4 ADD PUSH2 0x502 SWAP1 PUSH2 0xAA3 JUMP JUMPDEST PUSH1 0x40 MLOAD DUP1 SWAP2 SUB SWAP1 REVERT JUMPDEST PUSH1 0x2 PUSH0 SWAP1 SLOAD SWAP1 PUSH2 0x100 EXP SWAP1 DIV PUSH20 0xFFFFFFFFFFFFFFFFFFFFFFFFFFFFFFFFFFFFFFFF AND PUSH20 0xFFFFFFFFFFFFFFFFFFFFFFFFFFFFFFFFFFFFFFFF AND CALLER PUSH20 0xFFFFFFFFFFFFFFFFFFFFFFFFFFFFFFFFFFFFFFFF AND EQ PUSH2 0x59A JUMPI PUSH1 0x40 MLOAD PUSH32 0x8C379A000000000000000000000000000000000000000000000000000000000 DUP2 MSTORE PUSH1 0x4 ADD PUSH2 0x591 SWAP1 PUSH2 0x9DB JUMP JUMPDEST PUSH1 0x40 MLOAD DUP1 SWAP2 SUB SWAP1 REVERT JUMPDEST PUSH9 0x3635C9ADC5DEA00000 PUSH2 0x5AD SELFBALANCE PUSH2 0x819 JUMP JUMPDEST LT ISZERO PUSH2 0x5EE JUMPI PUSH1 0x40 MLOAD PUSH32 0x8C379A000000000000000000000000000000000000000000000000000000000 DUP2 MSTORE PUSH1 0x4 ADD PUSH2 0x5E5 SWAP1 PUSH2 0xC84 JUMP JUMPDEST PUSH1 0x40 MLOAD DUP1 SWAP2 SUB SWAP1 REVERT JUMPDEST PUSH0 CALLER PUSH20 0xFFFFFFFFFFFFFFFFFFFFFFFFFFFFFFFFFFFFFFFF AND SELFBALANCE PUSH1 0x40 MLOAD PUSH2 0x613 SWAP1 PUSH2 0xBBE JUMP JUMPDEST PUSH0 PUSH1 0x40 MLOAD DUP1 DUP4 SUB DUP2 DUP6 DUP8 GAS CALL SWAP3 POP POP POP RETURNDATASIZE DUP1 PUSH0 DUP2 EQ PUSH2 0x64D JUMPI PUSH1 0x40 MLOAD SWAP2 POP PUSH1 0x1F NOT PUSH1 0x3F RETURNDATASIZE ADD AND DUP3 ADD PUSH1 0x40 MSTORE RETURNDATASIZE DUP3 MSTORE RETURNDATASIZE PUSH0 PUSH1 0x20 DUP5 ADD RETURNDATACOPY PUSH2 0x652 JUMP JUMPDEST PUSH1 0x60 SWAP2 POP JUMPDEST POP POP DUP1 SWAP2 POP POP DUP1 PUSH2 0x698 JUMPI PUSH1 0x40 MLOAD PUSH32 0x8C379A000000000000000000000000000000000000000000000000000000000 DUP2 MSTORE PUSH1 0x4 ADD PUSH2 0x68F SWAP1 PUSH2 0xC1C JUMP JUMPDEST PUSH1 0x40 MLOAD DUP1 SWAP2 SUB SWAP1 REVERT JUMPDEST POP JUMP JUMPDEST PUSH1 0x5 SLOAD PUSH2 0x6A7 CALLVALUE PUSH2 0x819 JUMP JUMPDEST LT ISZERO PUSH2 0x6E8 JUMPI PUSH1 0x40 MLOAD PUSH32 0x8C379A000000000000000000000000000000000000000000000000000000000 DUP2 MSTORE PUSH1 0x4 ADD PUSH2 0x6DF SWAP1 PUSH2 0xCEC JUMP JUMPDEST PUSH1 0x40 MLOAD DUP1 SWAP2 SUB SWAP1 REVERT JUMPDEST PUSH1 0x4 SLOAD PUSH1 0x3 SLOAD PUSH2 0x6F8 SWAP2 SWAP1 PUSH2 0xA26 JUMP JUMPDEST TIMESTAMP LT PUSH2 0x739 JUMPI PUSH1 0x40 MLOAD PUSH32 0x8C379A000000000000000000000000000000000000000000000000000000000 DUP2 MSTORE PUSH1 0x4 ADD PUSH2 0x730 SWAP1 PUSH2 0xD54 JUMP JUMPDEST PUSH1 0x40 MLOAD DUP1 SWAP2 SUB SWAP1 REVERT JUMPDEST CALLVALUE PUSH0 DUP1 CALLER PUSH20 0xFFFFFFFFFFFFFFFFFFFFFFFFFFFFFFFFFFFFFFFF AND PUSH20 0xFFFFFFFFFFFFFFFFFFFFFFFFFFFFFFFFFFFFFFFF AND DUP2 MSTORE PUSH1 0x20 ADD SWAP1 DUP2 MSTORE PUSH1 0x20 ADD PUSH0 KECCAK256 DUP2 SWAP1 SSTORE POP JUMP JUMPDEST PUSH0 DUP1 PUSH1 0x1 PUSH0 SWAP1 SLOAD SWAP1 PUSH2 0x100 EXP SWAP1 DIV PUSH20 0xFFFFFFFFFFFFFFFFFFFFFFFFFFFFFFFFFFFFFFFF AND PUSH20 0xFFFFFFFFFFFFFFFFFFFFFFFFFFFFFFFFFFFFFFFF AND PUSH4 0xFEAF968C PUSH1 0x40 MLOAD DUP2 PUSH4 0xFFFFFFFF AND PUSH1 0xE0 SHL DUP2 MSTORE PUSH1 0x4 ADD PUSH1 0xA0 PUSH1 0x40 MLOAD DUP1 DUP4 SUB DUP2 DUP7 GAS STATICCALL ISZERO DUP1 ISZERO PUSH2 0x7E8 JUMPI RETURNDATASIZE PUSH0 DUP1 RETURNDATACOPY RETURNDATASIZE PUSH0 REVERT JUMPDEST POP POP POP POP PUSH1 0x40 MLOAD RETURNDATASIZE PUSH1 0x1F NOT PUSH1 0x1F DUP3 ADD AND DUP3 ADD DUP1 PUSH1 0x40 MSTORE POP DUP2 ADD SWAP1 PUSH2 0x80C SWAP2 SWAP1 PUSH2 0xE05 JUMP JUMPDEST POP POP POP SWAP2 POP POP DUP1 SWAP2 POP POP SWAP1 JUMP JUMPDEST PUSH0 DUP1 PUSH2 0x823 PUSH2 0x77C JUMP JUMPDEST SWAP1 POP PUSH4 0x5F5E100 DUP2 PUSH2 0x835 SWAP2 SWAP1 PUSH2 0xEA9 JUMP JUMPDEST DUP4 PUSH2 0x840 SWAP2 SWAP1 PUSH2 0xED9 JUMP JUMPDEST SWAP2 POP POP SWAP2 SWAP1 POP JUMP JUMPDEST PUSH0 DUP1 REVERT JUMPDEST PUSH0 PUSH20 0xFFFFFFFFFFFFFFFFFFFFFFFFFFFFFFFFFFFFFFFF DUP3 AND SWAP1 POP SWAP2 SWAP1 POP JUMP JUMPDEST PUSH0 PUSH2 0x875 DUP3 PUSH2 0x84C JUMP JUMPDEST SWAP1 POP SWAP2 SWAP1 POP JUMP JUMPDEST PUSH2 0x885 DUP2 PUSH2 0x86B JUMP JUMPDEST DUP2 EQ PUSH2 0x88F JUMPI PUSH0 DUP1 REVERT JUMPDEST POP JUMP JUMPDEST PUSH0 DUP2 CALLDATALOAD SWAP1 POP PUSH2 0x8A0 DUP2 PUSH2 0x87C JUMP JUMPDEST SWAP3 SWAP2 POP POP JUMP JUMPDEST PUSH0 PUSH1 0x20 DUP3 DUP5 SUB SLT ISZERO PUSH2 0x8BB JUMPI PUSH2 0x8BA PUSH2 0x848 JUMP JUMPDEST JUMPDEST PUSH0 PUSH2 0x8C8 DUP5 DUP3 DUP6 ADD PUSH2 0x892 JUMP JUMPDEST SWAP2 POP POP SWAP3 SWAP2 POP POP JUMP JUMPDEST PUSH0 DUP2 SWAP1 POP SWAP2 SWAP1 POP JUMP JUMPDEST PUSH2 0x8E3 DUP2 PUSH2 0x8D1 JUMP JUMPDEST DUP3 MSTORE POP POP JUMP JUMPDEST PUSH0 PUSH1 0x20 DUP3 ADD SWAP1 POP PUSH2 0x8FC PUSH0 DUP4 ADD DUP5 PUSH2 0x8DA JUMP JUMPDEST SWAP3 SWAP2 POP POP JUMP JUMPDEST PUSH2 0x90B DUP2 PUSH2 0x86B JUMP JUMPDEST DUP3 MSTORE POP POP JUMP JUMPDEST PUSH0 PUSH1 0x20 DUP3 ADD SWAP1 POP PUSH2 0x924 PUSH0 DUP4 ADD DUP5 PUSH2 0x902 JUMP JUMPDEST SWAP3 SWAP2 POP POP JUMP JUMPDEST PUSH0 DUP2 SWAP1 POP SWAP2 SWAP1 POP JUMP JUMPDEST PUSH2 0x93C DUP2 PUSH2 0x92A JUMP JUMPDEST DUP3 MSTORE POP POP JUMP JUMPDEST PUSH0 PUSH1 0x20 DUP3 ADD SWAP1 POP PUSH2 0x955 PUSH0 DUP4 ADD DUP5 PUSH2 0x933 JUMP JUMPDEST SWAP3 SWAP2 POP POP JUMP JUMPDEST PUSH0 DUP3 DUP3 MSTORE PUSH1 0x20 DUP3 ADD SWAP1 POP SWAP3 SWAP2 POP POP JUMP JUMPDEST PUSH32 0x746869732066756E6374696F6E2063616E206F6E6C792062652063616C6C6564 PUSH0 DUP3 ADD MSTORE PUSH32 0x206279206F776E65720000000000000000000000000000000000000000000000 PUSH1 0x20 DUP3 ADD MSTORE POP JUMP JUMPDEST PUSH0 PUSH2 0x9C5 PUSH1 0x29 DUP4 PUSH2 0x95B JUMP JUMPDEST SWAP2 POP PUSH2 0x9D0 DUP3 PUSH2 0x96B JUMP JUMPDEST PUSH1 0x40 DUP3 ADD SWAP1 POP SWAP2 SWAP1 POP JUMP JUMPDEST PUSH0 PUSH1 0x20 DUP3 ADD SWAP1 POP DUP2 DUP2 SUB PUSH0 DUP4 ADD MSTORE PUSH2 0x9F2 DUP2 PUSH2 0x9B9 JUMP JUMPDEST SWAP1 POP SWAP2 SWAP1 POP JUMP JUMPDEST PUSH32 0x4E487B7100000000000000000000000000000000000000000000000000000000 PUSH0 MSTORE PUSH1 0x11 PUSH1 0x4 MSTORE PUSH1 0x24 PUSH0 REVERT JUMPDEST PUSH0 PUSH2 0xA30 DUP3 PUSH2 0x8D1 JUMP JUMPDEST SWAP2 POP PUSH2 0xA3B DUP4 PUSH2 0x8D1 JUMP JUMPDEST SWAP3 POP DUP3 DUP3 ADD SWAP1 POP DUP1 DUP3 GT ISZERO PUSH2 0xA53 JUMPI PUSH2 0xA52 PUSH2 0x9F9 JUMP JUMPDEST JUMPDEST SWAP3 SWAP2 POP POP JUMP JUMPDEST PUSH32 0x77696E646F77206973206E6F7420636C6F736564000000000000000000000000 PUSH0 DUP3 ADD MSTORE POP JUMP JUMPDEST PUSH0 PUSH2 0xA8D PUSH1 0x14 DUP4 PUSH2 0x95B JUMP JUMPDEST SWAP2 POP PUSH2 0xA98 DUP3 PUSH2 0xA59 JUMP JUMPDEST PUSH1 0x20 DUP3 ADD SWAP1 POP SWAP2 SWAP1 POP JUMP JUMPDEST PUSH0 PUSH1 0x20 DUP3 ADD SWAP1 POP DUP2 DUP2 SUB PUSH0 DUP4 ADD MSTORE PUSH2 0xABA DUP2 PUSH2 0xA81 JUMP JUMPDEST SWAP1 POP SWAP2 SWAP1 POP JUMP JUMPDEST PUSH32 0x5461726765742069732072656163686564000000000000000000000000000000 PUSH0 DUP3 ADD MSTORE POP JUMP JUMPDEST PUSH0 PUSH2 0xAF5 PUSH1 0x11 DUP4 PUSH2 0x95B JUMP JUMPDEST SWAP2 POP PUSH2 0xB00 DUP3 PUSH2 0xAC1 JUMP JUMPDEST PUSH1 0x20 DUP3 ADD SWAP1 POP SWAP2 SWAP1 POP JUMP JUMPDEST PUSH0 PUSH1 0x20 DUP3 ADD SWAP1 POP DUP2 DUP2 SUB PUSH0 DUP4 ADD MSTORE PUSH2 0xB22 DUP2 PUSH2 0xAE9 JUMP JUMPDEST SWAP1 POP SWAP2 SWAP1 POP JUMP JUMPDEST PUSH32 0x7468657265206973206E6F2066756E6420666F7220796F750000000000000000 PUSH0 DUP3 ADD MSTORE POP JUMP JUMPDEST PUSH0 PUSH2 0xB5D PUSH1 0x18 DUP4 PUSH2 0x95B JUMP JUMPDEST SWAP2 POP PUSH2 0xB68 DUP3 PUSH2 0xB29 JUMP JUMPDEST PUSH1 0x20 DUP3 ADD SWAP1 POP SWAP2 SWAP1 POP JUMP JUMPDEST PUSH0 PUSH1 0x20 DUP3 ADD SWAP1 POP DUP2 DUP2 SUB PUSH0 DUP4 ADD MSTORE PUSH2 0xB8A DUP2 PUSH2 0xB51 JUMP JUMPDEST SWAP1 POP SWAP2 SWAP1 POP JUMP JUMPDEST PUSH0 DUP2 SWAP1 POP SWAP3 SWAP2 POP POP JUMP JUMPDEST POP JUMP JUMPDEST PUSH0 PUSH2 0xBA9 PUSH0 DUP4 PUSH2 0xB91 JUMP JUMPDEST SWAP2 POP PUSH2 0xBB4 DUP3 PUSH2 0xB9B JUMP JUMPDEST PUSH0 DUP3 ADD SWAP1 POP SWAP2 SWAP1 POP JUMP JUMPDEST PUSH0 PUSH2 0xBC8 DUP3 PUSH2 0xB9E JUMP JUMPDEST SWAP2 POP DUP2 SWAP1 POP SWAP2 SWAP1 POP JUMP JUMPDEST PUSH32 0x7472616E78666572207478206661696C65640000000000000000000000000000 PUSH0 DUP3 ADD MSTORE POP JUMP JUMPDEST PUSH0 PUSH2 0xC06 PUSH1 0x12 DUP4 PUSH2 0x95B JUMP JUMPDEST SWAP2 POP PUSH2 0xC11 DUP3 PUSH2 0xBD2 JUMP JUMPDEST PUSH1 0x20 DUP3 ADD SWAP1 POP SWAP2 SWAP1 POP JUMP JUMPDEST PUSH0 PUSH1 0x20 DUP3 ADD SWAP1 POP DUP2 DUP2 SUB PUSH0 DUP4 ADD MSTORE PUSH2 0xC33 DUP2 PUSH2 0xBFA JUMP JUMPDEST SWAP1 POP SWAP2 SWAP1 POP JUMP JUMPDEST PUSH32 0x546172676574206973206E6F7420726561636865640000000000000000000000 PUSH0 DUP3 ADD MSTORE POP JUMP JUMPDEST PUSH0 PUSH2 0xC6E PUSH1 0x15 DUP4 PUSH2 0x95B JUMP JUMPDEST SWAP2 POP PUSH2 0xC79 DUP3 PUSH2 0xC3A JUMP JUMPDEST PUSH1 0x20 DUP3 ADD SWAP1 POP SWAP2 SWAP1 POP JUMP JUMPDEST PUSH0 PUSH1 0x20 DUP3 ADD SWAP1 POP DUP2 DUP2 SUB PUSH0 DUP4 ADD MSTORE PUSH2 0xC9B DUP2 PUSH2 0xC62 JUMP JUMPDEST SWAP1 POP SWAP2 SWAP1 POP JUMP JUMPDEST PUSH32 0x53656E64206D6F72652045544800000000000000000000000000000000000000 PUSH0 DUP3 ADD MSTORE POP JUMP JUMPDEST PUSH0 PUSH2 0xCD6 PUSH1 0xD DUP4 PUSH2 0x95B JUMP JUMPDEST SWAP2 POP PUSH2 0xCE1 DUP3 PUSH2 0xCA2 JUMP JUMPDEST PUSH1 0x20 DUP3 ADD SWAP1 POP SWAP2 SWAP1 POP JUMP JUMPDEST PUSH0 PUSH1 0x20 DUP3 ADD SWAP1 POP DUP2 DUP2 SUB PUSH0 DUP4 ADD MSTORE PUSH2 0xD03 DUP2 PUSH2 0xCCA JUMP JUMPDEST SWAP1 POP SWAP2 SWAP1 POP JUMP JUMPDEST PUSH32 0x77696E646F7720697320636C6F73656400000000000000000000000000000000 PUSH0 DUP3 ADD MSTORE POP JUMP JUMPDEST PUSH0 PUSH2 0xD3E PUSH1 0x10 DUP4 PUSH2 0x95B JUMP JUMPDEST SWAP2 POP PUSH2 0xD49 DUP3 PUSH2 0xD0A JUMP JUMPDEST PUSH1 0x20 DUP3 ADD SWAP1 POP SWAP2 SWAP1 POP JUMP JUMPDEST PUSH0 PUSH1 0x20 DUP3 ADD SWAP1 POP DUP2 DUP2 SUB PUSH0 DUP4 ADD MSTORE PUSH2 0xD6B DUP2 PUSH2 0xD32 JUMP JUMPDEST SWAP1 POP SWAP2 SWAP1 POP JUMP JUMPDEST PUSH0 PUSH10 0xFFFFFFFFFFFFFFFFFFFF DUP3 AND SWAP1 POP SWAP2 SWAP1 POP JUMP JUMPDEST PUSH2 0xD90 DUP2 PUSH2 0xD72 JUMP JUMPDEST DUP2 EQ PUSH2 0xD9A JUMPI PUSH0 DUP1 REVERT JUMPDEST POP JUMP JUMPDEST PUSH0 DUP2 MLOAD SWAP1 POP PUSH2 0xDAB DUP2 PUSH2 0xD87 JUMP JUMPDEST SWAP3 SWAP2 POP POP JUMP JUMPDEST PUSH2 0xDBA DUP2 PUSH2 0x92A JUMP JUMPDEST DUP2 EQ PUSH2 0xDC4 JUMPI PUSH0 DUP1 REVERT JUMPDEST POP JUMP JUMPDEST PUSH0 DUP2 MLOAD SWAP1 POP PUSH2 0xDD5 DUP2 PUSH2 0xDB1 JUMP JUMPDEST SWAP3 SWAP2 POP POP JUMP JUMPDEST PUSH2 0xDE4 DUP2 PUSH2 0x8D1 JUMP JUMPDEST DUP2 EQ PUSH2 0xDEE JUMPI PUSH0 DUP1 REVERT JUMPDEST POP JUMP JUMPDEST PUSH0 DUP2 MLOAD SWAP1 POP PUSH2 0xDFF DUP2 PUSH2 0xDDB JUMP JUMPDEST SWAP3 SWAP2 POP POP JUMP JUMPDEST PUSH0 DUP1 PUSH0 DUP1 PUSH0 PUSH1 0xA0 DUP7 DUP9 SUB SLT ISZERO PUSH2 0xE1E JUMPI PUSH2 0xE1D PUSH2 0x848 JUMP JUMPDEST JUMPDEST PUSH0 PUSH2 0xE2B DUP9 DUP3 DUP10 ADD PUSH2 0xD9D JUMP JUMPDEST SWAP6 POP POP PUSH1 0x20 PUSH2 0xE3C DUP9 DUP3 DUP10 ADD PUSH2 0xDC7 JUMP JUMPDEST SWAP5 POP POP PUSH1 0x40 PUSH2 0xE4D DUP9 DUP3 DUP10 ADD PUSH2 0xDF1 JUMP JUMPDEST SWAP4 POP POP PUSH1 0x60 PUSH2 0xE5E DUP9 DUP3 DUP10 ADD PUSH2 0xDF1 JUMP JUMPDEST SWAP3 POP POP PUSH1 0x80 PUSH2 0xE6F DUP9 DUP3 DUP10 ADD PUSH2 0xD9D JUMP JUMPDEST SWAP2 POP POP SWAP3 SWAP6 POP SWAP3 SWAP6 SWAP1 SWAP4 POP JUMP JUMPDEST PUSH32 0x4E487B7100000000000000000000000000000000000000000000000000000000 PUSH0 MSTORE PUSH1 0x12 PUSH1 0x4 MSTORE PUSH1 0x24 PUSH0 REVERT JUMPDEST PUSH0 PUSH2 0xEB3 DUP3 PUSH2 0x8D1 JUMP JUMPDEST SWAP2 POP PUSH2 0xEBE DUP4 PUSH2 0x8D1 JUMP JUMPDEST SWAP3 POP DUP3 PUSH2 0xECE JUMPI PUSH2 0xECD PUSH2 0xE7C JUMP JUMPDEST JUMPDEST DUP3 DUP3 DIV SWAP1 POP SWAP3 SWAP2 POP POP JUMP JUMPDEST PUSH0 PUSH2 0xEE3 DUP3 PUSH2 0x8D1 JUMP JUMPDEST SWAP2 POP PUSH2 0xEEE DUP4 PUSH2 0x8D1 JUMP JUMPDEST SWAP3 POP DUP3 DUP3 MUL PUSH2 0xEFC DUP2 PUSH2 0x8D1 JUMP JUMPDEST SWAP2 POP DUP3 DUP3 DIV DUP5 EQ DUP4 ISZERO OR PUSH2 0xF13 JUMPI PUSH2 0xF12 PUSH2 0x9F9 JUMP JUMPDEST JUMPDEST POP SWAP3 SWAP2 POP POP JUMP INVALID LOG2 PUSH5 0x6970667358 0x22 SLT KECCAK256 0xE4 0xAA 0x1E 0x4B PUSH27 0x8D1301F4F8543DA45F8615824D152A6FCC96989725CB45C08887E7 PUSH5 0x736F6C6343 STOP ADDMOD BYTE STOP CALLER "
		},
		"gasEstimates": {
			"creation": {
				"codeDepositCost": "784000",
				"executionCost": "infinite",
				"totalCost": "infinite"
			},
			"external": {
				"fund()": "infinite",
				"funderToAmount(address)": "2824",
				"getChainlinkDataFeedLatestAnswer()": "infinite",
				"getFund()": "infinite",
				"owner()": "2508",
				"refund()": "infinite",
				"transfreOwnership(address)": "26885"
			},
			"internal": {
				"convertEthToUsd(uint256)": "infinite"
			}
		},
		"methodIdentifiers": {
			"fund()": "b60d4288",
			"funderToAmount(address)": "4407e1e8",
			"getChainlinkDataFeedLatestAnswer()": "bea4dfb5",
			"getFund()": "8edd6eb6",
			"owner()": "8da5cb5b",
			"refund()": "590e1ae3",
			"transfreOwnership(address)": "26d27c5c"
		}
	},
	"abi": [
		{
			"inputs": [
				{
					"internalType": "uint256",
					"name": "_lockTime",
					"type": "uint256"
				}
			],
			"stateMutability": "nonpayable",
			"type": "constructor"
		},
		{
			"inputs": [],
			"name": "fund",
			"outputs": [],
			"stateMutability": "payable",
			"type": "function"
		},
		{
			"inputs": [
				{
					"internalType": "address",
					"name": "",
					"type": "address"
				}
			],
			"name": "funderToAmount",
			"outputs": [
				{
					"internalType": "uint256",
					"name": "",
					"type": "uint256"
				}
			],
			"stateMutability": "view",
			"type": "function"
		},
		{
			"inputs": [],
			"name": "getChainlinkDataFeedLatestAnswer",
			"outputs": [
				{
					"internalType": "int256",
					"name": "",
					"type": "int256"
				}
			],
			"stateMutability": "view",
			"type": "function"
		},
		{
			"inputs": [],
			"name": "getFund",
			"outputs": [],
			"stateMutability": "nonpayable",
			"type": "function"
		},
		{
			"inputs": [],
			"name": "owner",
			"outputs": [
				{
					"internalType": "address",
					"name": "",
					"type": "address"
				}
			],
			"stateMutability": "view",
			"type": "function"
		},
		{
			"inputs": [],
			"name": "refund",
			"outputs": [],
			"stateMutability": "nonpayable",
			"type": "function"
		},
		{
			"inputs": [
				{
					"internalType": "address",
					"name": "newOwner",
					"type": "address"
				}
			],
			"name": "transfreOwnership",
			"outputs": [],
			"stateMutability": "nonpayable",
			"type": "function"
		}
	]
}